{"abi":[{"type":"constructor","inputs":[],"stateMutability":"nonpayable"},{"type":"function","name":"TRUST_THRESHOLD","inputs":[],"outputs":[{"name":"","type":"int256","internalType":"int256"}],"stateMutability":"view"},{"type":"function","name":"acceptOwnership","inputs":[],"outputs":[],"stateMutability":"nonpayable"},{"type":"function","name":"agentCount","inputs":[],"outputs":[{"name":"count","type":"uint256","internalType":"uint256"}],"stateMutability":"view"},{"type":"function","name":"agentIdByController","inputs":[{"name":"","type":"address","internalType":"address"}],"outputs":[{"name":"","type":"uint256","internalType":"uint256"}],"stateMutability":"view"},{"type":"function","name":"allowedValidators","inputs":[{"name":"","type":"address","internalType":"address"}],"outputs":[{"name":"","type":"bool","internalType":"bool"}],"stateMutability":"view"},{"type":"function","name":"approve","inputs":[{"name":"to","type":"address","internalType":"address"},{"name":"tokenId","type":"uint256","internalType":"uint256"}],"outputs":[],"stateMutability":"nonpayable"},{"type":"function","name":"attest","inputs":[{"name":"agentId","type":"uint256","internalType":"uint256"},{"name":"jobHash","type":"bytes32","internalType":"bytes32"},{"name":"ok","type":"bool","internalType":"bool"},{"name":"evidenceURI","type":"string","internalType":"string"}],"outputs":[],"stateMutability":"nonpayable"},{"type":"function","name":"attestations","inputs":[{"name":"","type":"uint256","internalType":"uint256"},{"name":"","type":"address","internalType":"address"}],"outputs":[{"name":"ok","type":"bool","internalType":"bool"},{"name":"jobHash","type":"bytes32","internalType":"bytes32"},{"name":"evidenceURI","type":"string","internalType":"string"},{"name":"timestamp","type":"uint64","internalType":"uint64"}],"stateMutability":"view"},{"type":"function","name":"balanceOf","inputs":[{"name":"owner","type":"address","internalType":"address"}],"outputs":[{"name":"","type":"uint256","internalType":"uint256"}],"stateMutability":"view"},{"type":"function","name":"getAgent","inputs":[{"name":"agentId","type":"uint256","internalType":"uint256"}],"outputs":[{"name":"profile","type":"tuple","internalType":"struct IERC8004.AgentProfile","components":[{"name":"name","type":"string","internalType":"string"},{"name":"metadataURI","type":"string","internalType":"string"},{"name":"controller","type":"address","internalType":"address"},{"name":"validated","type":"bool","internalType":"bool"}]}],"stateMutability":"view"},{"type":"function","name":"getApproved","inputs":[{"name":"tokenId","type":"uint256","internalType":"uint256"}],"outputs":[{"name":"","type":"address","internalType":"address"}],"stateMutability":"view"},{"type":"function","name":"getReputation","inputs":[{"name":"agentId","type":"uint256","internalType":"uint256"}],"outputs":[{"name":"score","type":"int256","internalType":"int256"}],"stateMutability":"view"},{"type":"function","name":"hasAgent","inputs":[{"name":"controller","type":"address","internalType":"address"}],"outputs":[{"name":"exists","type":"bool","internalType":"bool"}],"stateMutability":"view"},{"type":"function","name":"isApprovedForAll","inputs":[{"name":"owner","type":"address","internalType":"address"},{"name":"operator","type":"address","internalType":"address"}],"outputs":[{"name":"","type":"bool","internalType":"bool"}],"stateMutability":"view"},{"type":"function","name":"isTrusted","inputs":[{"name":"agentId","type":"uint256","internalType":"uint256"}],"outputs":[{"name":"","type":"bool","internalType":"bool"}],"stateMutability":"view"},{"type":"function","name":"name","inputs":[],"outputs":[{"name":"","type":"string","internalType":"string"}],"stateMutability":"view"},{"type":"function","name":"owner","inputs":[],"outputs":[{"name":"","type":"address","internalType":"address"}],"stateMutability":"view"},{"type":"function","name":"ownerOf","inputs":[{"name":"tokenId","type":"uint256","internalType":"uint256"}],"outputs":[{"name":"","type":"address","internalType":"address"}],"stateMutability":"view"},{"type":"function","name":"pause","inputs":[],"outputs":[],"stateMutability":"nonpayable"},{"type":"function","name":"paused","inputs":[],"outputs":[{"name":"","type":"bool","internalType":"bool"}],"stateMutability":"view"},{"type":"function","name":"pendingOwner","inputs":[],"outputs":[{"name":"","type":"address","internalType":"address"}],"stateMutability":"view"},{"type":"function","name":"registerAgent","inputs":[{"name":"name","type":"string","internalType":"string"},{"name":"metadataURI","type":"string","internalType":"string"}],"outputs":[{"name":"agentId","type":"uint256","internalType":"uint256"}],"stateMutability":"nonpayable"},{"type":"function","name":"renounceOwnership","inputs":[],"outputs":[],"stateMutability":"nonpayable"},{"type":"function","name":"reputationScores","inputs":[{"name":"","type":"uint256","internalType":"uint256"}],"outputs":[{"name":"","type":"int256","internalType":"int256"}],"stateMutability":"view"},{"type":"function","name":"safeTransferFrom","inputs":[{"name":"from","type":"address","internalType":"address"},{"name":"to","type":"address","internalType":"address"},{"name":"tokenId","type":"uint256","internalType":"uint256"}],"outputs":[],"stateMutability":"nonpayable"},{"type":"function","name":"safeTransferFrom","inputs":[{"name":"from","type":"address","internalType":"address"},{"name":"to","type":"address","internalType":"address"},{"name":"tokenId","type":"uint256","internalType":"uint256"},{"name":"data","type":"bytes","internalType":"bytes"}],"outputs":[],"stateMutability":"nonpayable"},{"type":"function","name":"setApprovalForAll","inputs":[{"name":"operator","type":"address","internalType":"address"},{"name":"approved","type":"bool","internalType":"bool"}],"outputs":[],"stateMutability":"nonpayable"},{"type":"function","name":"setValidator","inputs":[{"name":"validator","type":"address","internalType":"address"},{"name":"allowed","type":"bool","internalType":"bool"}],"outputs":[],"stateMutability":"nonpayable"},{"type":"function","name":"submitFeedback","inputs":[{"name":"agentId","type":"uint256","internalType":"uint256"},{"name":"delta","type":"int256","internalType":"int256"},{"name":"jobHash","type":"bytes32","internalType":"bytes32"},{"name":"evidenceURI","type":"string","internalType":"string"}],"outputs":[],"stateMutability":"nonpayable"},{"type":"function","name":"supportsInterface","inputs":[{"name":"interfaceId","type":"bytes4","internalType":"bytes4"}],"outputs":[{"name":"","type":"bool","internalType":"bool"}],"stateMutability":"view"},{"type":"function","name":"symbol","inputs":[],"outputs":[{"name":"","type":"string","internalType":"string"}],"stateMutability":"view"},{"type":"function","name":"tokenURI","inputs":[{"name":"tokenId","type":"uint256","internalType":"uint256"}],"outputs":[{"name":"","type":"string","internalType":"string"}],"stateMutability":"view"},{"type":"function","name":"transferFrom","inputs":[{"name":"from","type":"address","internalType":"address"},{"name":"to","type":"address","internalType":"address"},{"name":"tokenId","type":"uint256","internalType":"uint256"}],"outputs":[],"stateMutability":"nonpayable"},{"type":"function","name":"transferOwnership","inputs":[{"name":"newOwner","type":"address","internalType":"address"}],"outputs":[],"stateMutability":"nonpayable"},{"type":"function","name":"unpause","inputs":[],"outputs":[],"stateMutability":"nonpayable"},{"type":"function","name":"updateAgent","inputs":[{"name":"agentId","type":"uint256","internalType":"uint256"},{"name":"name","type":"string","internalType":"string"},{"name":"metadataURI","type":"string","internalType":"string"}],"outputs":[],"stateMutability":"nonpayable"},{"type":"event","name":"AgentAttested","inputs":[{"name":"agentId","type":"uint256","indexed":true,"internalType":"uint256"},{"name":"validator","type":"address","indexed":true,"internalType":"address"},{"name":"ok","type":"bool","indexed":false,"internalType":"bool"},{"name":"jobHash","type":"bytes32","indexed":false,"internalType":"bytes32"},{"name":"evidenceURI","type":"string","indexed":false,"internalType":"string"}],"anonymous":false},{"type":"event","name":"AgentRegistered","inputs":[{"name":"agentId","type":"uint256","indexed":true,"internalType":"uint256"},{"name":"controller","type":"address","indexed":true,"internalType":"address"},{"name":"name","type":"string","indexed":false,"internalType":"string"}],"anonymous":false},{"type":"event","name":"AgentURIUpdated","inputs":[{"name":"agentId","type":"uint256","indexed":true,"internalType":"uint256"},{"name":"agentURI","type":"string","indexed":false,"internalType":"string"}],"anonymous":false},{"type":"event","name":"Approval","inputs":[{"name":"owner","type":"address","indexed":true,"internalType":"address"},{"name":"approved","type":"address","indexed":true,"internalType":"address"},{"name":"tokenId","type":"uint256","indexed":true,"internalType":"uint256"}],"anonymous":false},{"type":"event","name":"ApprovalForAll","inputs":[{"name":"owner","type":"address","indexed":true,"internalType":"address"},{"name":"operator","type":"address","indexed":true,"internalType":"address"},{"name":"approved","type":"bool","indexed":false,"internalType":"bool"}],"anonymous":false},{"type":"event","name":"BatchMetadataUpdate","inputs":[{"name":"_fromTokenId","type":"uint256","indexed":false,"internalType":"uint256"},{"name":"_toTokenId","type":"uint256","indexed":false,"internalType":"uint256"}],"anonymous":false},{"type":"event","name":"MetadataUpdate","inputs":[{"name":"_tokenId","type":"uint256","indexed":false,"internalType":"uint256"}],"anonymous":false},{"type":"event","name":"OwnershipTransferStarted","inputs":[{"name":"previousOwner","type":"address","indexed":true,"internalType":"address"},{"name":"newOwner","type":"address","indexed":true,"internalType":"address"}],"anonymous":false},{"type":"event","name":"OwnershipTransferred","inputs":[{"name":"previousOwner","type":"address","indexed":true,"internalType":"address"},{"name":"newOwner","type":"address","indexed":true,"internalType":"address"}],"anonymous":false},{"type":"event","name":"Paused","inputs":[{"name":"account","type":"address","indexed":false,"internalType":"address"}],"anonymous":false},{"type":"event","name":"ReputationSignal","inputs":[{"name":"agentId","type":"uint256","indexed":true,"internalType":"uint256"},{"name":"rater","type":"address","indexed":true,"internalType":"address"},{"name":"delta","type":"int256","indexed":false,"internalType":"int256"},{"name":"jobHash","type":"bytes32","indexed":false,"internalType":"bytes32"},{"name":"evidenceURI","type":"string","indexed":false,"internalType":"string"}],"anonymous":false},{"type":"event","name":"Transfer","inputs":[{"name":"from","type":"address","indexed":true,"internalType":"address"},{"name":"to","type":"address","indexed":true,"internalType":"address"},{"name":"tokenId","type":"uint256","indexed":true,"internalType":"uint256"}],"anonymous":false},{"type":"event","name":"Unpaused","inputs":[{"name":"account","type":"address","indexed":false,"internalType":"address"}],"anonymous":false},{"type":"error","name":"ERC721IncorrectOwner","inputs":[{"name":"sender","type":"address","internalType":"address"},{"name":"tokenId","type":"uint256","internalType":"uint256"},{"name":"owner","type":"address","internalType":"address"}]},{"type":"error","name":"ERC721InsufficientApproval","inputs":[{"name":"operator","type":"address","internalType":"address"},{"name":"tokenId","type":"uint256","internalType":"uint256"}]},{"type":"error","name":"ERC721InvalidApprover","inputs":[{"name":"approver","type":"address","internalType":"address"}]},{"type":"error","name":"ERC721InvalidOperator","inputs":[{"name":"operator","type":"address","internalType":"address"}]},{"type":"error","name":"ERC721InvalidOwner","inputs":[{"name":"owner","type":"address","internalType":"address"}]},{"type":"error","name":"ERC721InvalidReceiver","inputs":[{"name":"receiver","type":"address","internalType":"address"}]},{"type":"error","name":"ERC721InvalidSender","inputs":[{"name":"sender","type":"address","internalType":"address"}]},{"type":"error","name":"ERC721NonexistentToken","inputs":[{"name":"tokenId","type":"uint256","internalType":"uint256"}]},{"type":"error","name":"EnforcedPause","inputs":[]},{"type":"error","name":"ExpectedPause","inputs":[]},{"type":"error","name":"OwnableInvalidOwner","inputs":[{"name":"owner","type":"address","internalType":"address"}]},{"type":"error","name":"OwnableUnauthorizedAccount","inputs":[{"name":"account","type":"address","internalType":"address"}]}],"bytecode":{"object":"0x60806040526001600955348015610014575f5ffd5b50336040518060400160405280600f81526020017f4e65787573466c6f77204167656e7400000000000000000000000000000000008152506040518060400160405280600381526020017f4e46410000000000000000000000000000000000000000000000000000000000815250815f9081610090919061045e565b5080600190816100a0919061045e565b5050505f73ffffffffffffffffffffffffffffffffffffffff168173ffffffffffffffffffffffffffffffffffffffff1603610113575f6040517f1e4fbdf700000000000000000000000000000000000000000000000000000000815260040161010a919061056c565b60405180910390fd5b6101228161012860201b60201c565b50610585565b60085f6101000a81549073ffffffffffffffffffffffffffffffffffffffff021916905561015b8161015e60201b60201c565b50565b5f60075f9054906101000a900473ffffffffffffffffffffffffffffffffffffffff1690508160075f6101000a81548173ffffffffffffffffffffffffffffffffffffffff021916908373ffffffffffffffffffffffffffffffffffffffff1602179055508173ffffffffffffffffffffffffffffffffffffffff168173ffffffffffffffffffffffffffffffffffffffff167f8be0079c531659141344cd1fd0a4f28419497f9722a3daafe3b4186f6b6457e060405160405180910390a35050565b5f81519050919050565b7f4e487b71000000000000000000000000000000000000000000000000000000005f52604160045260245ffd5b7f4e487b71000000000000000000000000000000000000000000000000000000005f52602260045260245ffd5b5f600282049050600182168061029c57607f821691505b6020821081036102af576102ae610258565b5b50919050565b5f819050815f5260205f209050919050565b5f6020601f8301049050919050565b5f82821b905092915050565b5f600883026103117fffffffffffffffffffffffffffffffffffffffffffffffffffffffffffffffff826102d6565b61031b86836102d6565b95508019841693508086168417925050509392505050565b5f819050919050565b5f819050919050565b5f61035f61035a61035584610333565b61033c565b610333565b9050919050565b5f819050919050565b61037883610345565b61038c61038482610366565b8484546102e2565b825550505050565b5f5f905090565b6103a3610394565b6103ae81848461036f565b505050565b5b818110156103d1576103c65f8261039b565b6001810190506103b4565b5050565b601f821115610416576103e7816102b5565b6103f0846102c7565b810160208510156103ff578190505b61041361040b856102c7565b8301826103b3565b50505b505050565b5f82821c905092915050565b5f6104365f198460080261041b565b1980831691505092915050565b5f61044e8383610427565b9150826002028217905092915050565b61046782610221565b67ffffffffffffffff8111156104805761047f61022b565b5b61048a8254610285565b6104958282856103d5565b5f60209050601f8311600181146104c6575f84156104b4578287015190505b6104be8582610443565b865550610525565b601f1984166104d4866102b5565b5f5b828110156104fb578489015182556001820191506020850194506020810190506104d6565b868310156105185784890151610514601f891682610427565b8355505b6001600288020188555050505b505050505050565b5f73ffffffffffffffffffffffffffffffffffffffff82169050919050565b5f6105568261052d565b9050919050565b6105668161054c565b82525050565b5f60208201905061057f5f83018461055d565b92915050565b614355806105925f395ff3fe608060405234801561000f575f5ffd5b506004361061021a575f3560e01c8063715018a611610123578063b7dc1284116100ab578063e30c39781161007a578063e30c397814610639578063e985e9c514610657578063f2fde38b14610687578063fc01c671146106a3578063ff17aca4146106d35761021a565b8063b7dc1284146105b3578063b88d4fde146105d1578063c87b56dd146105ed578063d2ecc9b61461061d5761021a565b806389370d8b116100f257806389370d8b146104fb5780638da5cb5b1461052b57806395d89b41146105495780639c996edb14610567578063a22cb465146105975761021a565b8063715018a6146104bf57806379ba5097146104c9578063830d9cf8146104d35780638456cb59146104f15761021a565b80633f4ba83a116101a65780635c975abb116101755780635c975abb146103f25780636352211e146104105780636357677a146104405780636e0c90071461045c57806370a082311461048f5761021a565b80633f4ba83a1461038057806342842e0e1461038a5780634623c91d146103a65780634aa11248146103c25761021a565b8063095ea7b3116101ed578063095ea7b3146102cc57806318b6b4ca146102e857806323b872dd146103185780632de5aaf71461033457806332d7929b146103645761021a565b806301ffc9a71461021e578063051cadea1461024e57806306fdde031461027e578063081812fc1461029c575b5f5ffd5b61023860048036038101906102339190612f88565b610703565b6040516102459190612fcd565b60405180910390f35b61026860048036038101906102639190613019565b610714565b6040516102759190612fcd565b60405180910390f35b610286610770565b60405161029391906130b4565b60405180910390f35b6102b660048036038101906102b19190613019565b6107ff565b6040516102c39190613113565b60405180910390f35b6102e660048036038101906102e19190613156565b61081a565b005b61030260048036038101906102fd9190613194565b610830565b60405161030f9190612fcd565b60405180910390f35b610332600480360381019061032d91906131bf565b61084d565b005b61034e60048036038101906103499190613019565b61094c565b60405161035b91906132dc565b60405180910390f35b61037e600480360381019061037991906133c3565b610ba7565b005b610388610ddc565b005b6103a4600480360381019061039f91906131bf565b610dee565b005b6103c060048036038101906103bb9190613471565b610e0d565b005b6103dc60048036038101906103d79190613194565b610e6d565b6040516103e99190612fcd565b60405180910390f35b6103fa610eb6565b6040516104079190612fcd565b60405180910390f35b61042a60048036038101906104259190613019565b610ecc565b6040516104379190613113565b60405180910390f35b61045a600480360381019061045591906134af565b610edd565b005b61047660048036038101906104719190613540565b61109a565b60405161048694939291906135af565b60405180910390f35b6104a960048036038101906104a49190613194565b611176565b6040516104b69190613608565b60405180910390f35b6104c761122c565b005b6104d161123f565b005b6104db6112cd565b6040516104e89190613630565b60405180910390f35b6104f96112d2565b005b61051560048036038101906105109190613019565b6112e4565b6040516105229190613630565b60405180910390f35b61053361139f565b6040516105409190613113565b60405180910390f35b6105516113c7565b60405161055e91906130b4565b60405180910390f35b610581600480360381019061057c9190613194565b611457565b60405161058e9190613608565b60405180910390f35b6105b160048036038101906105ac9190613471565b61146c565b005b6105bb611482565b6040516105c89190613608565b60405180910390f35b6105eb60048036038101906105e69190613771565b611497565b005b61060760048036038101906106029190613019565b6114bc565b60405161061491906130b4565b60405180910390f35b610637600480360381019061063291906137f1565b6114ce565b005b610641611711565b60405161064e9190613113565b60405180910390f35b610671600480360381019061066c9190613875565b611739565b60405161067e9190612fcd565b60405180910390f35b6106a1600480360381019061069c9190613194565b6117c7565b005b6106bd60048036038101906106b89190613019565b611873565b6040516106ca9190613630565b60405180910390f35b6106ed60048036038101906106e891906138b3565b611888565b6040516106fa9190613608565b60405180910390f35b5f61070d82611bd8565b9050919050565b5f600a5f8381526020019081526020015f2060020160149054906101000a900460ff1615610745576001905061076b565b600a600c5f8481526020019081526020015f205412610767576001905061076b565b5f90505b919050565b60605f805461077e9061395e565b80601f01602080910402602001604051908101604052809291908181526020018280546107aa9061395e565b80156107f55780601f106107cc576101008083540402835291602001916107f5565b820191905f5260205f20905b8154815290600101906020018083116107d857829003601f168201915b5050505050905090565b5f61080982611c38565b5061081382611cbe565b9050919050565b61082c8282610827611cf7565b611cfe565b5050565b600d602052805f5260405f205f915054906101000a900460ff1681565b5f73ffffffffffffffffffffffffffffffffffffffff168273ffffffffffffffffffffffffffffffffffffffff16036108bd575f6040517f64a0ae920000000000000000000000000000000000000000000000000000000081526004016108b49190613113565b60405180910390fd5b5f6108d083836108cb611cf7565b611d10565b90508373ffffffffffffffffffffffffffffffffffffffff168173ffffffffffffffffffffffffffffffffffffffff1614610946578382826040517f64283d7b00000000000000000000000000000000000000000000000000000000815260040161093d9392919061398e565b60405180910390fd5b50505050565b610954612ee4565b5f73ffffffffffffffffffffffffffffffffffffffff16600a5f8481526020019081526020015f206002015f9054906101000a900473ffffffffffffffffffffffffffffffffffffffff1673ffffffffffffffffffffffffffffffffffffffff16036109f5576040517f08c379a00000000000000000000000000000000000000000000000000000000081526004016109ec90613a0d565b60405180910390fd5b600a5f8381526020019081526020015f206040518060800160405290815f82018054610a209061395e565b80601f0160208091040260200160405190810160405280929190818152602001828054610a4c9061395e565b8015610a975780601f10610a6e57610100808354040283529160200191610a97565b820191905f5260205f20905b815481529060010190602001808311610a7a57829003601f168201915b50505050508152602001600182018054610ab09061395e565b80601f0160208091040260200160405190810160405280929190818152602001828054610adc9061395e565b8015610b275780601f10610afe57610100808354040283529160200191610b27565b820191905f5260205f20905b815481529060010190602001808311610b0a57829003601f168201915b50505050508152602001600282015f9054906101000a900473ffffffffffffffffffffffffffffffffffffffff1673ffffffffffffffffffffffffffffffffffffffff1673ffffffffffffffffffffffffffffffffffffffff1681526020016002820160149054906101000a900460ff1615151515815250509050919050565b5f73ffffffffffffffffffffffffffffffffffffffff16600a5f8781526020019081526020015f206002015f9054906101000a900473ffffffffffffffffffffffffffffffffffffffff1673ffffffffffffffffffffffffffffffffffffffff1603610c48576040517f08c379a0000000000000000000000000000000000000000000000000000000008152600401610c3f90613a0d565b60405180910390fd5b7ffffffffffffffffffffffffffffffffffffffffffffffffffffffffffffffff68412158015610c795750600a8413155b610cb8576040517f08c379a0000000000000000000000000000000000000000000000000000000008152600401610caf90613a75565b60405180910390fd5b3373ffffffffffffffffffffffffffffffffffffffff16600a5f8781526020019081526020015f206002015f9054906101000a900473ffffffffffffffffffffffffffffffffffffffff1673ffffffffffffffffffffffffffffffffffffffff1603610d59576040517f08c379a0000000000000000000000000000000000000000000000000000000008152600401610d5090613add565b60405180910390fd5b83600c5f8781526020019081526020015f205f828254610d799190613b28565b925050819055503373ffffffffffffffffffffffffffffffffffffffff16857f260162de9b5d6f7c75c46ce7f513db38508e482b5138257eba25d5a5070d268886868686604051610dcd9493929190613b95565b60405180910390a35050505050565b610de4611f1b565b610dec611fa2565b565b610e0883838360405180602001604052805f815250611497565b505050565b610e15611f1b565b80600d5f8473ffffffffffffffffffffffffffffffffffffffff1673ffffffffffffffffffffffffffffffffffffffff1681526020019081526020015f205f6101000a81548160ff0219169083151502179055505050565b5f5f600b5f8473ffffffffffffffffffffffffffffffffffffffff1673ffffffffffffffffffffffffffffffffffffffff1681526020019081526020015f205414159050919050565b5f600860149054906101000a900460ff16905090565b5f610ed682611c38565b9050919050565b843373ffffffffffffffffffffffffffffffffffffffff16600a5f8381526020019081526020015f206002015f9054906101000a900473ffffffffffffffffffffffffffffffffffffffff1673ffffffffffffffffffffffffffffffffffffffff1614610f7f576040517f08c379a0000000000000000000000000000000000000000000000000000000008152600401610f7690613c1d565b60405180910390fd5b5f8585905011610fc4576040517f08c379a0000000000000000000000000000000000000000000000000000000008152600401610fbb90613c85565b60405180910390fd5b8484600a5f8981526020019081526020015f205f019182610fe6929190613e4d565b508282600a5f8981526020019081526020015f20600101918261100a929190613e4d565b506110588684848080601f0160208091040260200160405190810160405280939291908181526020018383808284375f81840152601f19601f82011690508083019250505050505050612004565b857fe335f4a32c56fb32eb92f5084017a5836fcdc9307d02f49f27dd61f0f6a434a8848460405161108a929190613f1a565b60405180910390a2505050505050565b600e602052815f5260405f20602052805f5260405f205f9150915050805f015f9054906101000a900460ff16908060010154908060020180546110dc9061395e565b80601f01602080910402602001604051908101604052809291908181526020018280546111089061395e565b80156111535780601f1061112a57610100808354040283529160200191611153565b820191905f5260205f20905b81548152906001019060200180831161113657829003601f168201915b505050505090806003015f9054906101000a900467ffffffffffffffff16905084565b5f5f73ffffffffffffffffffffffffffffffffffffffff168273ffffffffffffffffffffffffffffffffffffffff16036111e7575f6040517f89c62b640000000000000000000000000000000000000000000000000000000081526004016111de9190613113565b60405180910390fd5b60035f8373ffffffffffffffffffffffffffffffffffffffff1673ffffffffffffffffffffffffffffffffffffffff1681526020019081526020015f20549050919050565b611234611f1b565b61123d5f61205e565b565b5f611248611cf7565b90508073ffffffffffffffffffffffffffffffffffffffff16611269611711565b73ffffffffffffffffffffffffffffffffffffffff16146112c157806040517f118cdaa70000000000000000000000000000000000000000000000000000000081526004016112b89190613113565b60405180910390fd5b6112ca8161205e565b50565b600a81565b6112da611f1b565b6112e261208e565b565b5f5f73ffffffffffffffffffffffffffffffffffffffff16600a5f8481526020019081526020015f206002015f9054906101000a900473ffffffffffffffffffffffffffffffffffffffff1673ffffffffffffffffffffffffffffffffffffffff1603611386576040517f08c379a000000000000000000000000000000000000000000000000000000000815260040161137d90613a0d565b60405180910390fd5b600c5f8381526020019081526020015f20549050919050565b5f60075f9054906101000a900473ffffffffffffffffffffffffffffffffffffffff16905090565b6060600180546113d69061395e565b80601f01602080910402602001604051908101604052809291908181526020018280546114029061395e565b801561144d5780601f106114245761010080835404028352916020019161144d565b820191905f5260205f20905b81548152906001019060200180831161143057829003601f168201915b5050505050905090565b600b602052805f5260405f205f915090505481565b61147e611477611cf7565b83836120f1565b5050565b5f60016009546114929190613f3c565b905090565b6114a284848461084d565b6114b66114ad611cf7565b8585858561225a565b50505050565b60606114c782612406565b9050919050565b600d5f3373ffffffffffffffffffffffffffffffffffffffff1673ffffffffffffffffffffffffffffffffffffffff1681526020019081526020015f205f9054906101000a900460ff16611557576040517f08c379a000000000000000000000000000000000000000000000000000000000815260040161154e90613fb9565b60405180910390fd5b6040518060800160405280841515815260200185815260200183838080601f0160208091040260200160405190810160405280939291908181526020018383808284375f81840152601f19601f8201169050808301925050505050505081526020014267ffffffffffffffff16815250600e5f8781526020019081526020015f205f3373ffffffffffffffffffffffffffffffffffffffff1673ffffffffffffffffffffffffffffffffffffffff1681526020019081526020015f205f820151815f015f6101000a81548160ff02191690831515021790555060208201518160010155604082015181600201908161164f9190613fd7565b506060820151816003015f6101000a81548167ffffffffffffffff021916908367ffffffffffffffff16021790555090505082156116b5576001600a5f8781526020019081526020015f2060020160146101000a81548160ff0219169083151502179055505b3373ffffffffffffffffffffffffffffffffffffffff16857f8e5e92e39baaec87c54a27e3f10493a0f1ec69c6eeefd01c342f9d9e3668e7308587868660405161170294939291906140a6565b60405180910390a35050505050565b5f60085f9054906101000a900473ffffffffffffffffffffffffffffffffffffffff16905090565b5f60055f8473ffffffffffffffffffffffffffffffffffffffff1673ffffffffffffffffffffffffffffffffffffffff1681526020019081526020015f205f8373ffffffffffffffffffffffffffffffffffffffff1673ffffffffffffffffffffffffffffffffffffffff1681526020019081526020015f205f9054906101000a900460ff16905092915050565b6117cf611f1b565b8060085f6101000a81548173ffffffffffffffffffffffffffffffffffffffff021916908373ffffffffffffffffffffffffffffffffffffffff1602179055508073ffffffffffffffffffffffffffffffffffffffff1661182e61139f565b73ffffffffffffffffffffffffffffffffffffffff167f38d16b8cac22d99fc7c124b9cd0de2d3fa1faef420bfe791d8c362d765e2270060405160405180910390a350565b600c602052805f5260405f205f915090505481565b5f611891612511565b5f85859050116118d6576040517f08c379a00000000000000000000000000000000000000000000000000000000081526004016118cd90613c85565b60405180910390fd5b5f600b5f3373ffffffffffffffffffffffffffffffffffffffff1673ffffffffffffffffffffffffffffffffffffffff1681526020019081526020015f205414611955576040517f08c379a000000000000000000000000000000000000000000000000000000000815260040161194c9061412e565b60405180910390fd5b60095f8154809291906119679061414c565b9190505590506119773382612552565b6119c48184848080601f0160208091040260200160405190810160405280939291908181526020018383808284375f81840152601f19601f82011690508083019250505050505050612004565b604051806080016040528086868080601f0160208091040260200160405190810160405280939291908181526020018383808284375f81840152601f19601f82011690508083019250505050505050815260200184848080601f0160208091040260200160405190810160405280939291908181526020018383808284375f81840152601f19601f8201169050808301925050505050505081526020013373ffffffffffffffffffffffffffffffffffffffff1681526020015f1515815250600a5f8381526020019081526020015f205f820151815f019081611aa79190613fd7565b506020820151816001019081611abd9190613fd7565b506040820151816002015f6101000a81548173ffffffffffffffffffffffffffffffffffffffff021916908373ffffffffffffffffffffffffffffffffffffffff16021790555060608201518160020160146101000a81548160ff02191690831515021790555090505080600b5f3373ffffffffffffffffffffffffffffffffffffffff1673ffffffffffffffffffffffffffffffffffffffff1681526020019081526020015f20819055505f600c5f8381526020019081526020015f20819055503373ffffffffffffffffffffffffffffffffffffffff16817f0d063c6022bff16d09991a9f91882ffa112f5fb2529136f65eb4c77bbd047e438787604051611bc8929190613f1a565b60405180910390a3949350505050565b5f634906490660e01b7bffffffffffffffffffffffffffffffffffffffffffffffffffffffff1916827bffffffffffffffffffffffffffffffffffffffffffffffffffffffff19161480611c315750611c308261256f565b5b9050919050565b5f5f611c4383612650565b90505f73ffffffffffffffffffffffffffffffffffffffff168173ffffffffffffffffffffffffffffffffffffffff1603611cb557826040517f7e273289000000000000000000000000000000000000000000000000000000008152600401611cac9190613608565b60405180910390fd5b80915050919050565b5f60045f8381526020019081526020015f205f9054906101000a900473ffffffffffffffffffffffffffffffffffffffff169050919050565b5f33905090565b611d0b8383836001612689565b505050565b5f5f611d1b84612650565b90505f73ffffffffffffffffffffffffffffffffffffffff168373ffffffffffffffffffffffffffffffffffffffff1614611d5c57611d5b818486612848565b5b5f73ffffffffffffffffffffffffffffffffffffffff168173ffffffffffffffffffffffffffffffffffffffff1614611de757611d9b5f855f5f612689565b600160035f8373ffffffffffffffffffffffffffffffffffffffff1673ffffffffffffffffffffffffffffffffffffffff1681526020019081526020015f205f82825403925050819055505b5f73ffffffffffffffffffffffffffffffffffffffff168573ffffffffffffffffffffffffffffffffffffffff1614611e6657600160035f8773ffffffffffffffffffffffffffffffffffffffff1673ffffffffffffffffffffffffffffffffffffffff1681526020019081526020015f205f82825401925050819055505b8460025f8681526020019081526020015f205f6101000a81548173ffffffffffffffffffffffffffffffffffffffff021916908373ffffffffffffffffffffffffffffffffffffffff160217905550838573ffffffffffffffffffffffffffffffffffffffff168273ffffffffffffffffffffffffffffffffffffffff167fddf252ad1be2c89b69c2b068fc378daa952ba7f163c4a11628f55a4df523b3ef60405160405180910390a4809150509392505050565b611f23611cf7565b73ffffffffffffffffffffffffffffffffffffffff16611f4161139f565b73ffffffffffffffffffffffffffffffffffffffff1614611fa057611f64611cf7565b6040517f118cdaa7000000000000000000000000000000000000000000000000000000008152600401611f979190613113565b60405180910390fd5b565b611faa61290b565b5f600860146101000a81548160ff0219169083151502179055507f5db9ee0a495bf2e6ff9c91a7834c1ba4fdd244a5e8aa4e537bd38aeae4b073aa611fed611cf7565b604051611ffa9190613113565b60405180910390a1565b8060065f8481526020019081526020015f2090816120229190613fd7565b507ff8e1a15aba9398e019f0b49df1a4fde98ee17ae345cb5f6b5e2c27f5033e8ce7826040516120529190613608565b60405180910390a15050565b60085f6101000a81549073ffffffffffffffffffffffffffffffffffffffff021916905561208b8161294b565b50565b612096612511565b6001600860146101000a81548160ff0219169083151502179055507f62e78cea01bee320cd4e420270b5ea74000d11b0c9f74754ebdbfc544b05a2586120da611cf7565b6040516120e79190613113565b60405180910390a1565b5f73ffffffffffffffffffffffffffffffffffffffff168273ffffffffffffffffffffffffffffffffffffffff160361216157816040517f5b08ba180000000000000000000000000000000000000000000000000000000081526004016121589190613113565b60405180910390fd5b8060055f8573ffffffffffffffffffffffffffffffffffffffff1673ffffffffffffffffffffffffffffffffffffffff1681526020019081526020015f205f8473ffffffffffffffffffffffffffffffffffffffff1673ffffffffffffffffffffffffffffffffffffffff1681526020019081526020015f205f6101000a81548160ff0219169083151502179055508173ffffffffffffffffffffffffffffffffffffffff168373ffffffffffffffffffffffffffffffffffffffff167f17307eab39ab6107e8899845ad3d59bd9653f200f220920489ca2b5937696c318360405161224d9190612fcd565b60405180910390a3505050565b5f8373ffffffffffffffffffffffffffffffffffffffff163b11156123ff578273ffffffffffffffffffffffffffffffffffffffff1663150b7a02868685856040518563ffffffff1660e01b81526004016122b894939291906141e5565b6020604051808303815f875af19250505080156122f357506040513d601f19601f820116820180604052508101906122f09190614243565b60015b612374573d805f8114612321576040519150601f19603f3d011682016040523d82523d5f602084013e612326565b606091505b505f81510361236c57836040517f64a0ae920000000000000000000000000000000000000000000000000000000081526004016123639190613113565b60405180910390fd5b805160208201fd5b63150b7a0260e01b7bffffffffffffffffffffffffffffffffffffffffffffffffffffffff1916817bffffffffffffffffffffffffffffffffffffffffffffffffffffffff1916146123fd57836040517f64a0ae920000000000000000000000000000000000000000000000000000000081526004016123f49190613113565b60405180910390fd5b505b5050505050565b606061241182611c38565b505f60065f8481526020019081526020015f20805461242f9061395e565b80601f016020809104026020016040519081016040528092919081815260200182805461245b9061395e565b80156124a65780601f1061247d576101008083540402835291602001916124a6565b820191905f5260205f20905b81548152906001019060200180831161248957829003601f168201915b505050505090505f6124b6612a0e565b90505f8151036124ca57819250505061250c565b5f825111156124fe5780826040516020016124e69291906142a8565b6040516020818303038152906040529250505061250c565b61250784612a24565b925050505b919050565b612519610eb6565b15612550576040517fd93c066500000000000000000000000000000000000000000000000000000000815260040160405180910390fd5b565b61256b828260405180602001604052805f815250612a8a565b5050565b5f7f80ac58cd000000000000000000000000000000000000000000000000000000007bffffffffffffffffffffffffffffffffffffffffffffffffffffffff1916827bffffffffffffffffffffffffffffffffffffffffffffffffffffffff1916148061263957507f5b5e139f000000000000000000000000000000000000000000000000000000007bffffffffffffffffffffffffffffffffffffffffffffffffffffffff1916827bffffffffffffffffffffffffffffffffffffffffffffffffffffffff1916145b80612649575061264882612aad565b5b9050919050565b5f60025f8381526020019081526020015f205f9054906101000a900473ffffffffffffffffffffffffffffffffffffffff169050919050565b80806126c157505f73ffffffffffffffffffffffffffffffffffffffff168273ffffffffffffffffffffffffffffffffffffffff1614155b156127f3575f6126d084611c38565b90505f73ffffffffffffffffffffffffffffffffffffffff168373ffffffffffffffffffffffffffffffffffffffff161415801561273a57508273ffffffffffffffffffffffffffffffffffffffff168173ffffffffffffffffffffffffffffffffffffffff1614155b801561274d575061274b8184611739565b155b1561278f57826040517fa9fbf51f0000000000000000000000000000000000000000000000000000000081526004016127869190613113565b60405180910390fd5b81156127f157838573ffffffffffffffffffffffffffffffffffffffff168273ffffffffffffffffffffffffffffffffffffffff167f8c5be1e5ebec7d5bd14f71427d1e84f3dd0314c0f7b2291e5b200ac8c7c3b92560405160405180910390a45b505b8360045f8581526020019081526020015f205f6101000a81548173ffffffffffffffffffffffffffffffffffffffff021916908373ffffffffffffffffffffffffffffffffffffffff16021790555050505050565b612853838383612b16565b612906575f73ffffffffffffffffffffffffffffffffffffffff168373ffffffffffffffffffffffffffffffffffffffff16036128c757806040517f7e2732890000000000000000000000000000000000000000000000000000000081526004016128be9190613608565b60405180910390fd5b81816040517f177e802f0000000000000000000000000000000000000000000000000000000081526004016128fd9291906142cb565b60405180910390fd5b505050565b612913610eb6565b612949576040517f8dfc202b00000000000000000000000000000000000000000000000000000000815260040160405180910390fd5b565b5f60075f9054906101000a900473ffffffffffffffffffffffffffffffffffffffff1690508160075f6101000a81548173ffffffffffffffffffffffffffffffffffffffff021916908373ffffffffffffffffffffffffffffffffffffffff1602179055508173ffffffffffffffffffffffffffffffffffffffff168173ffffffffffffffffffffffffffffffffffffffff167f8be0079c531659141344cd1fd0a4f28419497f9722a3daafe3b4186f6b6457e060405160405180910390a35050565b606060405180602001604052805f815250905090565b6060612a2f82611c38565b505f612a39612a0e565b90505f815111612a575760405180602001604052805f815250612a82565b80612a6184612bd6565b604051602001612a729291906142a8565b6040516020818303038152906040525b915050919050565b612a948383612ca0565b612aa8612a9f611cf7565b5f85858561225a565b505050565b5f7f01ffc9a7000000000000000000000000000000000000000000000000000000007bffffffffffffffffffffffffffffffffffffffffffffffffffffffff1916827bffffffffffffffffffffffffffffffffffffffffffffffffffffffff1916149050919050565b5f5f73ffffffffffffffffffffffffffffffffffffffff168373ffffffffffffffffffffffffffffffffffffffff1614158015612bcd57508273ffffffffffffffffffffffffffffffffffffffff168473ffffffffffffffffffffffffffffffffffffffff161480612b8e5750612b8d8484611739565b5b80612bcc57508273ffffffffffffffffffffffffffffffffffffffff16612bb483611cbe565b73ffffffffffffffffffffffffffffffffffffffff16145b5b90509392505050565b60605f6001612be484612d93565b0190505f8167ffffffffffffffff811115612c0257612c0161364d565b5b6040519080825280601f01601f191660200182016040528015612c345781602001600182028036833780820191505090505b5090505f82602083010190505b600115612c95578080600190039150507f3031323334353637383961626364656600000000000000000000000000000000600a86061a8153600a8581612c8a57612c896142f2565b5b0494505f8503612c41575b819350505050919050565b5f73ffffffffffffffffffffffffffffffffffffffff168273ffffffffffffffffffffffffffffffffffffffff1603612d10575f6040517f64a0ae92000000000000000000000000000000000000000000000000000000008152600401612d079190613113565b60405180910390fd5b5f612d1c83835f611d10565b90505f73ffffffffffffffffffffffffffffffffffffffff168173ffffffffffffffffffffffffffffffffffffffff1614612d8e575f6040517f73c6ac6e000000000000000000000000000000000000000000000000000000008152600401612d859190613113565b60405180910390fd5b505050565b5f5f5f90507a184f03e93ff9f4daa797ed6e38ed64bf6a1f0100000000000000008310612def577a184f03e93ff9f4daa797ed6e38ed64bf6a1f0100000000000000008381612de557612de46142f2565b5b0492506040810190505b6d04ee2d6d415b85acef81000000008310612e2c576d04ee2d6d415b85acef81000000008381612e2257612e216142f2565b5b0492506020810190505b662386f26fc100008310612e5b57662386f26fc100008381612e5157612e506142f2565b5b0492506010810190505b6305f5e1008310612e84576305f5e1008381612e7a57612e796142f2565b5b0492506008810190505b6127108310612ea9576127108381612e9f57612e9e6142f2565b5b0492506004810190505b60648310612ecc5760648381612ec257612ec16142f2565b5b0492506002810190505b600a8310612edb576001810190505b80915050919050565b604051806080016040528060608152602001606081526020015f73ffffffffffffffffffffffffffffffffffffffff1681526020015f151581525090565b5f604051905090565b5f5ffd5b5f5ffd5b5f7fffffffff0000000000000000000000000000000000000000000000000000000082169050919050565b612f6781612f33565b8114612f71575f5ffd5b50565b5f81359050612f8281612f5e565b92915050565b5f60208284031215612f9d57612f9c612f2b565b5b5f612faa84828501612f74565b91505092915050565b5f8115159050919050565b612fc781612fb3565b82525050565b5f602082019050612fe05f830184612fbe565b92915050565b5f819050919050565b612ff881612fe6565b8114613002575f5ffd5b50565b5f8135905061301381612fef565b92915050565b5f6020828403121561302e5761302d612f2b565b5b5f61303b84828501613005565b91505092915050565b5f81519050919050565b5f82825260208201905092915050565b8281835e5f83830152505050565b5f601f19601f8301169050919050565b5f61308682613044565b613090818561304e565b93506130a081856020860161305e565b6130a98161306c565b840191505092915050565b5f6020820190508181035f8301526130cc818461307c565b905092915050565b5f73ffffffffffffffffffffffffffffffffffffffff82169050919050565b5f6130fd826130d4565b9050919050565b61310d816130f3565b82525050565b5f6020820190506131265f830184613104565b92915050565b613135816130f3565b811461313f575f5ffd5b50565b5f813590506131508161312c565b92915050565b5f5f6040838503121561316c5761316b612f2b565b5b5f61317985828601613142565b925050602061318a85828601613005565b9150509250929050565b5f602082840312156131a9576131a8612f2b565b5b5f6131b684828501613142565b91505092915050565b5f5f5f606084860312156131d6576131d5612f2b565b5b5f6131e386828701613142565b93505060206131f486828701613142565b925050604061320586828701613005565b9150509250925092565b5f82825260208201905092915050565b5f61322982613044565b613233818561320f565b935061324381856020860161305e565b61324c8161306c565b840191505092915050565b613260816130f3565b82525050565b61326f81612fb3565b82525050565b5f608083015f8301518482035f86015261328f828261321f565b915050602083015184820360208601526132a9828261321f565b91505060408301516132be6040860182613257565b5060608301516132d16060860182613266565b508091505092915050565b5f6020820190508181035f8301526132f48184613275565b905092915050565b5f819050919050565b61330e816132fc565b8114613318575f5ffd5b50565b5f8135905061332981613305565b92915050565b5f819050919050565b6133418161332f565b811461334b575f5ffd5b50565b5f8135905061335c81613338565b92915050565b5f5ffd5b5f5ffd5b5f5ffd5b5f5f83601f84011261338357613382613362565b5b8235905067ffffffffffffffff8111156133a05761339f613366565b5b6020830191508360018202830111156133bc576133bb61336a565b5b9250929050565b5f5f5f5f5f608086880312156133dc576133db612f2b565b5b5f6133e988828901613005565b95505060206133fa8882890161331b565b945050604061340b8882890161334e565b935050606086013567ffffffffffffffff81111561342c5761342b612f2f565b5b6134388882890161336e565b92509250509295509295909350565b61345081612fb3565b811461345a575f5ffd5b50565b5f8135905061346b81613447565b92915050565b5f5f6040838503121561348757613486612f2b565b5b5f61349485828601613142565b92505060206134a58582860161345d565b9150509250929050565b5f5f5f5f5f606086880312156134c8576134c7612f2b565b5b5f6134d588828901613005565b955050602086013567ffffffffffffffff8111156134f6576134f5612f2f565b5b6135028882890161336e565b9450945050604086013567ffffffffffffffff81111561352557613524612f2f565b5b6135318882890161336e565b92509250509295509295909350565b5f5f6040838503121561355657613555612f2b565b5b5f61356385828601613005565b925050602061357485828601613142565b9150509250929050565b6135878161332f565b82525050565b5f67ffffffffffffffff82169050919050565b6135a98161358d565b82525050565b5f6080820190506135c25f830187612fbe565b6135cf602083018661357e565b81810360408301526135e1818561307c565b90506135f060608301846135a0565b95945050505050565b61360281612fe6565b82525050565b5f60208201905061361b5f8301846135f9565b92915050565b61362a816132fc565b82525050565b5f6020820190506136435f830184613621565b92915050565b5f5ffd5b7f4e487b71000000000000000000000000000000000000000000000000000000005f52604160045260245ffd5b6136838261306c565b810181811067ffffffffffffffff821117156136a2576136a161364d565b5b80604052505050565b5f6136b4612f22565b90506136c0828261367a565b919050565b5f67ffffffffffffffff8211156136df576136de61364d565b5b6136e88261306c565b9050602081019050919050565b828183375f83830152505050565b5f613715613710846136c5565b6136ab565b90508281526020810184848401111561373157613730613649565b5b61373c8482856136f5565b509392505050565b5f82601f83011261375857613757613362565b5b8135613768848260208601613703565b91505092915050565b5f5f5f5f6080858703121561378957613788612f2b565b5b5f61379687828801613142565b94505060206137a787828801613142565b93505060406137b887828801613005565b925050606085013567ffffffffffffffff8111156137d9576137d8612f2f565b5b6137e587828801613744565b91505092959194509250565b5f5f5f5f5f6080868803121561380a57613809612f2b565b5b5f61381788828901613005565b95505060206138288882890161334e565b94505060406138398882890161345d565b935050606086013567ffffffffffffffff81111561385a57613859612f2f565b5b6138668882890161336e565b92509250509295509295909350565b5f5f6040838503121561388b5761388a612f2b565b5b5f61389885828601613142565b92505060206138a985828601613142565b9150509250929050565b5f5f5f5f604085870312156138cb576138ca612f2b565b5b5f85013567ffffffffffffffff8111156138e8576138e7612f2f565b5b6138f48782880161336e565b9450945050602085013567ffffffffffffffff81111561391757613916612f2f565b5b6139238782880161336e565b925092505092959194509250565b7f4e487b71000000000000000000000000000000000000000000000000000000005f52602260045260245ffd5b5f600282049050600182168061397557607f821691505b60208210810361398857613987613931565b5b50919050565b5f6060820190506139a15f830186613104565b6139ae60208301856135f9565b6139bb6040830184613104565b949350505050565b7f4167656e7420646f6573206e6f742065786973740000000000000000000000005f82015250565b5f6139f760148361304e565b9150613a02826139c3565b602082019050919050565b5f6020820190508181035f830152613a24816139eb565b9050919050565b7f44656c7461206f7574206f662072616e676500000000000000000000000000005f82015250565b5f613a5f60128361304e565b9150613a6a82613a2b565b602082019050919050565b5f6020820190508181035f830152613a8c81613a53565b9050919050565b7f43616e6e6f7420766f746520666f72206f776e206167656e74000000000000005f82015250565b5f613ac760198361304e565b9150613ad282613a93565b602082019050919050565b5f6020820190508181035f830152613af481613abb565b9050919050565b7f4e487b71000000000000000000000000000000000000000000000000000000005f52601160045260245ffd5b5f613b32826132fc565b9150613b3d836132fc565b92508282019050828112155f8312168382125f841215161715613b6357613b62613afb565b5b92915050565b5f613b74838561304e565b9350613b818385846136f5565b613b8a8361306c565b840190509392505050565b5f606082019050613ba85f830187613621565b613bb5602083018661357e565b8181036040830152613bc8818486613b69565b905095945050505050565b7f4e6f74206167656e7420636f6e74726f6c6c65720000000000000000000000005f82015250565b5f613c0760148361304e565b9150613c1282613bd3565b602082019050919050565b5f6020820190508181035f830152613c3481613bfb565b9050919050565b7f4e616d652063616e6e6f7420626520656d7074790000000000000000000000005f82015250565b5f613c6f60148361304e565b9150613c7a82613c3b565b602082019050919050565b5f6020820190508181035f830152613c9c81613c63565b9050919050565b5f82905092915050565b5f819050815f5260205f209050919050565b5f6020601f8301049050919050565b5f82821b905092915050565b5f60088302613d097fffffffffffffffffffffffffffffffffffffffffffffffffffffffffffffffff82613cce565b613d138683613cce565b95508019841693508086168417925050509392505050565b5f819050919050565b5f613d4e613d49613d4484612fe6565b613d2b565b612fe6565b9050919050565b5f819050919050565b613d6783613d34565b613d7b613d7382613d55565b848454613cda565b825550505050565b5f5f905090565b613d92613d83565b613d9d818484613d5e565b505050565b5b81811015613dc057613db55f82613d8a565b600181019050613da3565b5050565b601f821115613e0557613dd681613cad565b613ddf84613cbf565b81016020851015613dee578190505b613e02613dfa85613cbf565b830182613da2565b50505b505050565b5f82821c905092915050565b5f613e255f1984600802613e0a565b1980831691505092915050565b5f613e3d8383613e16565b9150826002028217905092915050565b613e578383613ca3565b67ffffffffffffffff811115613e7057613e6f61364d565b5b613e7a825461395e565b613e85828285613dc4565b5f601f831160018114613eb2575f8415613ea0578287013590505b613eaa8582613e32565b865550613f11565b601f198416613ec086613cad565b5f5b82811015613ee757848901358255600182019150602085019450602081019050613ec2565b86831015613f045784890135613f00601f891682613e16565b8355505b6001600288020188555050505b50505050505050565b5f6020820190508181035f830152613f33818486613b69565b90509392505050565b5f613f4682612fe6565b9150613f5183612fe6565b9250828203905081811115613f6957613f68613afb565b5b92915050565b7f4e6f7420616e20616c6c6f7765642076616c696461746f7200000000000000005f82015250565b5f613fa360188361304e565b9150613fae82613f6f565b602082019050919050565b5f6020820190508181035f830152613fd081613f97565b9050919050565b613fe082613044565b67ffffffffffffffff811115613ff957613ff861364d565b5b614003825461395e565b61400e828285613dc4565b5f60209050601f83116001811461403f575f841561402d578287015190505b6140378582613e32565b86555061409e565b601f19841661404d86613cad565b5f5b828110156140745784890151825560018201915060208501945060208101905061404f565b86831015614091578489015161408d601f891682613e16565b8355505b6001600288020188555050505b505050505050565b5f6060820190506140b95f830187612fbe565b6140c6602083018661357e565b81810360408301526140d9818486613b69565b905095945050505050565b7f436f6e74726f6c6c657220616c72656164792068617320616e206167656e74005f82015250565b5f614118601f8361304e565b9150614123826140e4565b602082019050919050565b5f6020820190508181035f8301526141458161410c565b9050919050565b5f61415682612fe6565b91507fffffffffffffffffffffffffffffffffffffffffffffffffffffffffffffffff820361418857614187613afb565b5b600182019050919050565b5f81519050919050565b5f82825260208201905092915050565b5f6141b782614193565b6141c1818561419d565b93506141d181856020860161305e565b6141da8161306c565b840191505092915050565b5f6080820190506141f85f830187613104565b6142056020830186613104565b61421260408301856135f9565b818103606083015261422481846141ad565b905095945050505050565b5f8151905061423d81612f5e565b92915050565b5f6020828403121561425857614257612f2b565b5b5f6142658482850161422f565b91505092915050565b5f81905092915050565b5f61428282613044565b61428c818561426e565b935061429c81856020860161305e565b80840191505092915050565b5f6142b38285614278565b91506142bf8284614278565b91508190509392505050565b5f6040820190506142de5f830185613104565b6142eb60208301846135f9565b9392505050565b7f4e487b71000000000000000000000000000000000000000000000000000000005f52601260045260245ffdfea26469706673582212206026110cb78df00c775df799f54ca785ace1b32dcad6c25dd5b2aa954a41d4ed64736f6c634300081c0033","linkReferences":{}},"methodIdentifiers":{"TRUST_THRESHOLD()":"830d9cf8","acceptOwnership()":"79ba5097","agentCount()":"b7dc1284","agentIdByController(address)":"9c996edb","allowedValidators(address)":"18b6b4ca","approve(address,uint256)":"095ea7b3","attest(uint256,bytes32,bool,string)":"d2ecc9b6","attestations(uint256,address)":"6e0c9007","balanceOf(address)":"70a08231","getAgent(uint256)":"2de5aaf7","getApproved(uint256)":"081812fc","getReputation(uint256)":"89370d8b","hasAgent(address)":"4aa11248","isApprovedForAll(address,address)":"e985e9c5","isTrusted(uint256)":"051cadea","name()":"06fdde03","owner()":"8da5cb5b","ownerOf(uint256)":"6352211e","pause()":"8456cb59","paused()":"5c975abb","pendingOwner()":"e30c3978","registerAgent(string,string)":"ff17aca4","renounceOwnership()":"715018a6","reputationScores(uint256)":"fc01c671","safeTransferFrom(address,address,uint256)":"42842e0e","safeTransferFrom(address,address,uint256,bytes)":"b88d4fde","setApprovalForAll(address,bool)":"a22cb465","setValidator(address,bool)":"4623c91d","submitFeedback(uint256,int256,bytes32,string)":"32d7929b","supportsInterface(bytes4)":"01ffc9a7","symbol()":"95d89b41","tokenURI(uint256)":"c87b56dd","transferFrom(address,address,uint256)":"23b872dd","transferOwnership(address)":"f2fde38b","unpause()":"3f4ba83a","updateAgent(uint256,string,string)":"6357677a"},"id":44}