{"abi":[{"type":"constructor","inputs":[],"stateMutability":"nonpayable"},{"type":"function","name":"L2_MESSENGER","inputs":[],"outputs":[{"name":"","type":"address","internalType":"address"}],"stateMutability":"view"},{"type":"function","name":"addSupportedChain","inputs":[{"name":"_chainId","type":"uint256","internalType":"uint256"},{"name":"_remoteBridge","type":"address","internalType":"address"}],"outputs":[],"stateMutability":"nonpayable"},{"type":"function","name":"bridge","inputs":[{"name":"_token","type":"address","internalType":"address"},{"name":"_to","type":"address","internalType":"address"},{"name":"_amount","type":"uint256","internalType":"uint256"},{"name":"_destinationChainId","type":"uint256","internalType":"uint256"}],"outputs":[],"stateMutability":"nonpayable"},{"type":"function","name":"completeBridge","inputs":[{"name":"_token","type":"address","internalType":"address"},{"name":"_to","type":"address","internalType":"address"},{"name":"_amount","type":"uint256","internalType":"uint256"}],"outputs":[],"stateMutability":"nonpayable"},{"type":"function","name":"mapToken","inputs":[{"name":"_chainId","type":"uint256","internalType":"uint256"},{"name":"_localToken","type":"address","internalType":"address"},{"name":"_remoteToken","type":"address","internalType":"address"}],"outputs":[],"stateMutability":"nonpayable"},{"type":"function","name":"owner","inputs":[],"outputs":[{"name":"","type":"address","internalType":"address"}],"stateMutability":"view"},{"type":"function","name":"remoteBridges","inputs":[{"name":"","type":"uint256","internalType":"uint256"}],"outputs":[{"name":"","type":"address","internalType":"address"}],"stateMutability":"view"},{"type":"function","name":"supportedChains","inputs":[{"name":"","type":"uint256","internalType":"uint256"}],"outputs":[{"name":"","type":"bool","internalType":"bool"}],"stateMutability":"view"},{"type":"function","name":"tokenMappings","inputs":[{"name":"","type":"uint256","internalType":"uint256"},{"name":"","type":"address","internalType":"address"}],"outputs":[{"name":"","type":"address","internalType":"address"}],"stateMutability":"view"},{"type":"event","name":"BridgeCompleted","inputs":[{"name":"token","type":"address","indexed":true,"internalType":"address"},{"name":"to","type":"address","indexed":true,"internalType":"address"},{"name":"amount","type":"uint256","indexed":false,"internalType":"uint256"},{"name":"sourceChainId","type":"uint256","indexed":false,"internalType":"uint256"}],"anonymous":false},{"type":"event","name":"BridgeInitiated","inputs":[{"name":"token","type":"address","indexed":true,"internalType":"address"},{"name":"from","type":"address","indexed":true,"internalType":"address"},{"name":"to","type":"address","indexed":true,"internalType":"address"},{"name":"amount","type":"uint256","indexed":false,"internalType":"uint256"},{"name":"destinationChainId","type":"uint256","indexed":false,"internalType":"uint256"}],"anonymous":false},{"type":"event","name":"ChainSupported","inputs":[{"name":"chainId","type":"uint256","indexed":false,"internalType":"uint256"},{"name":"remoteBridge","type":"address","indexed":false,"internalType":"address"}],"anonymous":false},{"type":"event","name":"TokenMapped","inputs":[{"name":"chainId","type":"uint256","indexed":false,"internalType":"uint256"},{"name":"localToken","type":"address","indexed":false,"internalType":"address"},{"name":"remoteToken","type":"address","indexed":false,"internalType":"address"}],"anonymous":false}],"bytecode":{"object":"0x6080604052348015600e575f5ffd5b503360035f6101000a81548173ffffffffffffffffffffffffffffffffffffffff021916908373ffffffffffffffffffffffffffffffffffffffff16021790555061130d8061005c5f395ff3fe608060405234801561000f575f5ffd5b5060043610610091575f3560e01c80637a7d2970116100645780637a7d29701461012f5780638da5cb5b1461014b578063b0d4175314610169578063b0dd5dfb14610185578063e5361522146101b557610091565b80630d3c4bc71461009557806317011baf146100b3578063464e45fa146100cf578063548d496f146100ff575b5f5ffd5b61009d6101d1565b6040516100aa9190610c25565b60405180910390f35b6100cd60048036038101906100c89190610c9f565b6101e9565b005b6100e960048036038101906100e49190610c9f565b61032c565b6040516100f69190610c25565b60405180910390f35b61011960048036038101906101149190610cdd565b610368565b6040516101269190610d22565b60405180910390f35b61014960048036038101906101449190610d3b565b610385565b005b610153610674565b6040516101609190610c25565b60405180910390f35b610183600480360381019061017e9190610d8b565b610699565b005b61019f600480360381019061019a9190610cdd565b6107f1565b6040516101ac9190610c25565b60405180910390f35b6101cf60048036038101906101ca9190610ddb565b610821565b005b73420000000000000000000000000000000000002381565b60035f9054906101000a900473ffffffffffffffffffffffffffffffffffffffff1673ffffffffffffffffffffffffffffffffffffffff163373ffffffffffffffffffffffffffffffffffffffff1614610278576040517f08c379a000000000000000000000000000000000000000000000000000000000815260040161026f90610e99565b60405180910390fd5b6001805f8481526020019081526020015f205f6101000a81548160ff0219169083151502179055508060025f8481526020019081526020015f205f6101000a81548173ffffffffffffffffffffffffffffffffffffffff021916908373ffffffffffffffffffffffffffffffffffffffff1602179055507f32402b4b64ff89743b937cca5994c1500619d9c04e4f0e16e49ac173872103658282604051610320929190610ec6565b60405180910390a15050565b5f602052815f5260405f20602052805f5260405f205f915091509054906101000a900473ffffffffffffffffffffffffffffffffffffffff1681565b6001602052805f5260405f205f915054906101000a900460ff1681565b73420000000000000000000000000000000000002373ffffffffffffffffffffffffffffffffffffffff163373ffffffffffffffffffffffffffffffffffffffff1614610407576040517f08c379a00000000000000000000000000000000000000000000000000000000081526004016103fe90610f37565b60405180910390fd5b5f73420000000000000000000000000000000000002390505f8173ffffffffffffffffffffffffffffffffffffffff166338ffde186040518163ffffffff1660e01b8152600401602060405180830381865afa158015610469573d5f5f3e3d5ffd5b505050506040513d601f19601f8201168201806040525081019061048d9190610f69565b90505f8273ffffffffffffffffffffffffffffffffffffffff1663247944626040518163ffffffff1660e01b8152600401602060405180830381865afa1580156104d9573d5f5f3e3d5ffd5b505050506040513d601f19601f820116820180604052508101906104fd9190610fa8565b905060025f8281526020019081526020015f205f9054906101000a900473ffffffffffffffffffffffffffffffffffffffff1673ffffffffffffffffffffffffffffffffffffffff168273ffffffffffffffffffffffffffffffffffffffff161461059d576040517f08c379a00000000000000000000000000000000000000000000000000000000081526004016105949061101d565b60405180910390fd5b8573ffffffffffffffffffffffffffffffffffffffff166318bf507786866040518363ffffffff1660e01b81526004016105d892919061103b565b5f604051808303815f87803b1580156105ef575f5ffd5b505af1158015610601573d5f5f3e3d5ffd5b505050508473ffffffffffffffffffffffffffffffffffffffff168673ffffffffffffffffffffffffffffffffffffffff167f324114b1592510b3f897368294afa80856c731895db8a6d1b3fcbe2a3a6920ba8684604051610664929190611062565b60405180910390a3505050505050565b60035f9054906101000a900473ffffffffffffffffffffffffffffffffffffffff1681565b60035f9054906101000a900473ffffffffffffffffffffffffffffffffffffffff1673ffffffffffffffffffffffffffffffffffffffff163373ffffffffffffffffffffffffffffffffffffffff1614610728576040517f08c379a000000000000000000000000000000000000000000000000000000000815260040161071f90610e99565b60405180910390fd5b805f5f8581526020019081526020015f205f8473ffffffffffffffffffffffffffffffffffffffff1673ffffffffffffffffffffffffffffffffffffffff1681526020019081526020015f205f6101000a81548173ffffffffffffffffffffffffffffffffffffffff021916908373ffffffffffffffffffffffffffffffffffffffff1602179055507f8955eb6679613544fdf5bfc6e6f47cbd5deb5f33a803d0a84ec212e4f8996e368383836040516107e493929190611089565b60405180910390a1505050565b6002602052805f5260405f205f915054906101000a900473ffffffffffffffffffffffffffffffffffffffff1681565b60015f8281526020019081526020015f205f9054906101000a900460ff1661087e576040517f08c379a000000000000000000000000000000000000000000000000000000000815260040161087590611108565b60405180910390fd5b5f5f5f8381526020019081526020015f205f8673ffffffffffffffffffffffffffffffffffffffff1673ffffffffffffffffffffffffffffffffffffffff1681526020019081526020015f205f9054906101000a900473ffffffffffffffffffffffffffffffffffffffff1690505f73ffffffffffffffffffffffffffffffffffffffff168173ffffffffffffffffffffffffffffffffffffffff160361095a576040517f08c379a000000000000000000000000000000000000000000000000000000000815260040161095190611170565b60405180910390fd5b5f60025f8481526020019081526020015f205f9054906101000a900473ffffffffffffffffffffffffffffffffffffffff1690505f73ffffffffffffffffffffffffffffffffffffffff168173ffffffffffffffffffffffffffffffffffffffff16036109fc576040517f08c379a00000000000000000000000000000000000000000000000000000000081526004016109f3906111d8565b60405180910390fd5b8573ffffffffffffffffffffffffffffffffffffffff16632b8c49e333866040518363ffffffff1660e01b8152600401610a3792919061103b565b5f604051808303815f87803b158015610a4e575f5ffd5b505af1158015610a60573d5f5f3e3d5ffd5b505050505f637a7d297060e01b838787604051602401610a82939291906111f6565b604051602081830303815290604052907bffffffffffffffffffffffffffffffffffffffffffffffffffffffff19166020820180517bffffffffffffffffffffffffffffffffffffffffffffffffffffffff8381831617835250505050905073420000000000000000000000000000000000002373ffffffffffffffffffffffffffffffffffffffff16637056f41f8584846040518463ffffffff1660e01b8152600401610b329392919061129b565b5f604051808303815f87803b158015610b49575f5ffd5b505af1158015610b5b573d5f5f3e3d5ffd5b505050508573ffffffffffffffffffffffffffffffffffffffff163373ffffffffffffffffffffffffffffffffffffffff168873ffffffffffffffffffffffffffffffffffffffff167f3c5e042a0b2a2ce43b45814f0e16283e2dc912d7024b71e57cfdf2afbaff31708888604051610bd5929190611062565b60405180910390a450505050505050565b5f73ffffffffffffffffffffffffffffffffffffffff82169050919050565b5f610c0f82610be6565b9050919050565b610c1f81610c05565b82525050565b5f602082019050610c385f830184610c16565b92915050565b5f5ffd5b5f819050919050565b610c5481610c42565b8114610c5e575f5ffd5b50565b5f81359050610c6f81610c4b565b92915050565b610c7e81610c05565b8114610c88575f5ffd5b50565b5f81359050610c9981610c75565b92915050565b5f5f60408385031215610cb557610cb4610c3e565b5b5f610cc285828601610c61565b9250506020610cd385828601610c8b565b9150509250929050565b5f60208284031215610cf257610cf1610c3e565b5b5f610cff84828501610c61565b91505092915050565b5f8115159050919050565b610d1c81610d08565b82525050565b5f602082019050610d355f830184610d13565b92915050565b5f5f5f60608486031215610d5257610d51610c3e565b5b5f610d5f86828701610c8b565b9350506020610d7086828701610c8b565b9250506040610d8186828701610c61565b9150509250925092565b5f5f5f60608486031215610da257610da1610c3e565b5b5f610daf86828701610c61565b9350506020610dc086828701610c8b565b9250506040610dd186828701610c8b565b9150509250925092565b5f5f5f5f60808587031215610df357610df2610c3e565b5b5f610e0087828801610c8b565b9450506020610e1187828801610c8b565b9350506040610e2287828801610c61565b9250506060610e3387828801610c61565b91505092959194509250565b5f82825260208201905092915050565b7f4e6f74206f776e657200000000000000000000000000000000000000000000005f82015250565b5f610e83600983610e3f565b9150610e8e82610e4f565b602082019050919050565b5f6020820190508181035f830152610eb081610e77565b9050919050565b610ec081610c42565b82525050565b5f604082019050610ed95f830185610eb7565b610ee66020830184610c16565b9392505050565b7f4f6e6c79206d657373656e6765720000000000000000000000000000000000005f82015250565b5f610f21600e83610e3f565b9150610f2c82610eed565b602082019050919050565b5f6020820190508181035f830152610f4e81610f15565b9050919050565b5f81519050610f6381610c75565b92915050565b5f60208284031215610f7e57610f7d610c3e565b5b5f610f8b84828501610f55565b91505092915050565b5f81519050610fa281610c4b565b92915050565b5f60208284031215610fbd57610fbc610c3e565b5b5f610fca84828501610f94565b91505092915050565b7f496e76616c69642072656d6f74652073656e64657200000000000000000000005f82015250565b5f611007601583610e3f565b915061101282610fd3565b602082019050919050565b5f6020820190508181035f83015261103481610ffb565b9050919050565b5f60408201905061104e5f830185610c16565b61105b6020830184610eb7565b9392505050565b5f6040820190506110755f830185610eb7565b6110826020830184610eb7565b9392505050565b5f60608201905061109c5f830186610eb7565b6110a96020830185610c16565b6110b66040830184610c16565b949350505050565b7f436861696e206e6f7420737570706f72746564000000000000000000000000005f82015250565b5f6110f2601383610e3f565b91506110fd826110be565b602082019050919050565b5f6020820190508181035f83015261111f816110e6565b9050919050565b7f546f6b656e206e6f74206d6170706564000000000000000000000000000000005f82015250565b5f61115a601083610e3f565b915061116582611126565b602082019050919050565b5f6020820190508181035f8301526111878161114e565b9050919050565b7f52656d6f746520627269646765206e6f742073657400000000000000000000005f82015250565b5f6111c2601583610e3f565b91506111cd8261118e565b602082019050919050565b5f6020820190508181035f8301526111ef816111b6565b9050919050565b5f6060820190506112095f830186610c16565b6112166020830185610c16565b6112236040830184610eb7565b949350505050565b5f81519050919050565b5f82825260208201905092915050565b8281835e5f83830152505050565b5f601f19601f8301169050919050565b5f61126d8261122b565b6112778185611235565b9350611287818560208601611245565b61129081611253565b840191505092915050565b5f6060820190506112ae5f830186610eb7565b6112bb6020830185610c16565b81810360408301526112cd8184611263565b905094935050505056fea26469706673582212203667e5d3b788658c8b42de5e1e7d93dd920c9d5de63c648a91b8bf01f8b2ff3864736f6c634300081c0033","linkReferences":{}},"methodIdentifiers":{"L2_MESSENGER()":"0d3c4bc7","addSupportedChain(uint256,address)":"17011baf","bridge(address,address,uint256,uint256)":"e5361522","completeBridge(address,address,uint256)":"7a7d2970","mapToken(uint256,address,address)":"b0d41753","owner()":"8da5cb5b","remoteBridges(uint256)":"b0dd5dfb","supportedChains(uint256)":"548d496f","tokenMappings(uint256,address)":"464e45fa"},"id":48}