{"abi":[{"type":"constructor","inputs":[],"stateMutability":"nonpayable"},{"type":"function","name":"calculateInterest","inputs":[{"name":"user","type":"address","internalType":"address"},{"name":"asset","type":"address","internalType":"address"}],"outputs":[{"name":"","type":"uint256","internalType":"uint256"}],"stateMutability":"view"},{"type":"function","name":"deposits","inputs":[{"name":"","type":"address","internalType":"address"},{"name":"","type":"address","internalType":"address"}],"outputs":[{"name":"principal","type":"uint256","internalType":"uint256"},{"name":"lastUpdateTime","type":"uint256","internalType":"uint256"},{"name":"accruedInterest","type":"uint256","internalType":"uint256"}],"stateMutability":"view"},{"type":"function","name":"getCurrentBalance","inputs":[{"name":"user","type":"address","internalType":"address"},{"name":"asset","type":"address","internalType":"address"}],"outputs":[{"name":"","type":"uint256","internalType":"uint256"}],"stateMutability":"view"},{"type":"function","name":"getReserveData","inputs":[{"name":"asset","type":"address","internalType":"address"}],"outputs":[{"name":"","type":"tuple","internalType":"struct IAavePool.ReserveData","components":[{"name":"configuration","type":"tuple","internalType":"struct IAavePool.ReserveConfigurationMap","components":[{"name":"data","type":"uint256","internalType":"uint256"}]},{"name":"liquidityIndex","type":"uint128","internalType":"uint128"},{"name":"currentLiquidityRate","type":"uint128","internalType":"uint128"},{"name":"variableBorrowIndex","type":"uint128","internalType":"uint128"},{"name":"currentVariableBorrowRate","type":"uint128","internalType":"uint128"},{"name":"currentStableBorrowRate","type":"uint128","internalType":"uint128"},{"name":"lastUpdateTimestamp","type":"uint40","internalType":"uint40"},{"name":"id","type":"uint16","internalType":"uint16"},{"name":"aTokenAddress","type":"address","internalType":"address"},{"name":"stableDebtTokenAddress","type":"address","internalType":"address"},{"name":"variableDebtTokenAddress","type":"address","internalType":"address"},{"name":"interestRateStrategyAddress","type":"address","internalType":"address"},{"name":"accruedToTreasury","type":"uint128","internalType":"uint128"},{"name":"unbacked","type":"uint128","internalType":"uint128"},{"name":"isolationModeTotalDebt","type":"uint128","internalType":"uint128"}]}],"stateMutability":"view"},{"type":"function","name":"liquidityRates","inputs":[{"name":"","type":"address","internalType":"address"}],"outputs":[{"name":"","type":"uint128","internalType":"uint128"}],"stateMutability":"view"},{"type":"function","name":"owner","inputs":[],"outputs":[{"name":"","type":"address","internalType":"address"}],"stateMutability":"view"},{"type":"function","name":"setLiquidityRate","inputs":[{"name":"asset","type":"address","internalType":"address"},{"name":"rate","type":"uint128","internalType":"uint128"}],"outputs":[],"stateMutability":"nonpayable"},{"type":"function","name":"supply","inputs":[{"name":"asset","type":"address","internalType":"address"},{"name":"amount","type":"uint256","internalType":"uint256"},{"name":"onBehalfOf","type":"address","internalType":"address"},{"name":"referralCode","type":"uint16","internalType":"uint16"}],"outputs":[],"stateMutability":"nonpayable"},{"type":"function","name":"withdraw","inputs":[{"name":"asset","type":"address","internalType":"address"},{"name":"amount","type":"uint256","internalType":"uint256"},{"name":"to","type":"address","internalType":"address"}],"outputs":[{"name":"","type":"uint256","internalType":"uint256"}],"stateMutability":"nonpayable"},{"type":"event","name":"Deposited","inputs":[{"name":"user","type":"address","indexed":true,"internalType":"address"},{"name":"asset","type":"address","indexed":true,"internalType":"address"},{"name":"amount","type":"uint256","indexed":false,"internalType":"uint256"}],"anonymous":false},{"type":"event","name":"InterestAccrued","inputs":[{"name":"user","type":"address","indexed":true,"internalType":"address"},{"name":"asset","type":"address","indexed":true,"internalType":"address"},{"name":"interest","type":"uint256","indexed":false,"internalType":"uint256"}],"anonymous":false},{"type":"event","name":"Withdrawn","inputs":[{"name":"user","type":"address","indexed":true,"internalType":"address"},{"name":"asset","type":"address","indexed":true,"internalType":"address"},{"name":"amount","type":"uint256","indexed":false,"internalType":"uint256"}],"anonymous":false}],"bytecode":{"object":"0x6080604052348015600e575f5ffd5b50335f5f6101000a81548173ffffffffffffffffffffffffffffffffffffffff021916908373ffffffffffffffffffffffffffffffffffffffff16021790555061169a8061005b5f395ff3fe608060405234801561000f575f5ffd5b5060043610610091575f3560e01c806369328dec1161006457806369328dec1461012d578063870929401461015d5780638da5cb5b1461018d5780638f601f66146101ab578063ae31d621146101dd57610091565b8063041b7a061461009557806310361039146100c557806335ea6a75146100e1578063617ba03714610111575b5f5ffd5b6100af60048036038101906100aa9190610eb6565b61020d565b6040516100bc9190610f0c565b60405180910390f35b6100df60048036038101906100da9190610f6a565b6102be565b005b6100fb60048036038101906100f69190610fa8565b6103c3565b6040516101089190611188565b60405180910390f35b61012b600480360381019061012691906111f6565b61059b565b005b6101476004803603810190610142919061125a565b61076a565b6040516101549190610f0c565b60405180910390f35b61017760048036038101906101729190610eb6565b6109d5565b6040516101849190610f0c565b60405180910390f35b610195610b45565b6040516101a291906112b9565b60405180910390f35b6101c560048036038101906101c09190610eb6565b610b69565b6040516101d4939291906112d2565b60405180910390f35b6101f760048036038101906101f29190610fa8565b610b9a565b6040516102049190611316565b60405180910390f35b5f5f60025f8573ffffffffffffffffffffffffffffffffffffffff1673ffffffffffffffffffffffffffffffffffffffff1681526020019081526020015f205f8473ffffffffffffffffffffffffffffffffffffffff1673ffffffffffffffffffffffffffffffffffffffff1681526020019081526020015f2090505f61029485856109d5565b9050808260020154835f01546102aa919061135c565b6102b4919061135c565b9250505092915050565b5f5f9054906101000a900473ffffffffffffffffffffffffffffffffffffffff1673ffffffffffffffffffffffffffffffffffffffff163373ffffffffffffffffffffffffffffffffffffffff161461034c576040517f08c379a0000000000000000000000000000000000000000000000000000000008152600401610343906113e9565b60405180910390fd5b8060015f8473ffffffffffffffffffffffffffffffffffffffff1673ffffffffffffffffffffffffffffffffffffffff1681526020019081526020015f205f6101000a8154816fffffffffffffffffffffffffffffffff02191690836fffffffffffffffffffffffffffffffff1602179055505050565b6103cb610ce5565b604051806101e0016040528060405180602001604052805f81525081526020016b033b2e3c9fd0803ce80000006fffffffffffffffffffffffffffffffff16815260200160015f8573ffffffffffffffffffffffffffffffffffffffff1673ffffffffffffffffffffffffffffffffffffffff1681526020019081526020015f205f9054906101000a90046fffffffffffffffffffffffffffffffff166fffffffffffffffffffffffffffffffff1681526020015f6fffffffffffffffffffffffffffffffff1681526020015f6fffffffffffffffffffffffffffffffff1681526020015f6fffffffffffffffffffffffffffffffff1681526020014264ffffffffff1681526020015f61ffff1681526020015f73ffffffffffffffffffffffffffffffffffffffff1681526020015f73ffffffffffffffffffffffffffffffffffffffff1681526020015f73ffffffffffffffffffffffffffffffffffffffff1681526020015f73ffffffffffffffffffffffffffffffffffffffff1681526020015f6fffffffffffffffffffffffffffffffff1681526020015f6fffffffffffffffffffffffffffffffff1681526020015f6fffffffffffffffffffffffffffffffff168152509050919050565b6105a58285610bc6565b8373ffffffffffffffffffffffffffffffffffffffff166323b872dd3330866040518463ffffffff1660e01b81526004016105e293929190611407565b6020604051808303815f875af11580156105fe573d5f5f3e3d5ffd5b505050506040513d601f19601f820116820180604052508101906106229190611471565b610661576040517f08c379a0000000000000000000000000000000000000000000000000000000008152600401610658906114e6565b60405180910390fd5b5f60025f8473ffffffffffffffffffffffffffffffffffffffff1673ffffffffffffffffffffffffffffffffffffffff1681526020019081526020015f205f8673ffffffffffffffffffffffffffffffffffffffff1673ffffffffffffffffffffffffffffffffffffffff1681526020019081526020015f20905083815f015f8282546106ee919061135c565b925050819055504281600101819055508473ffffffffffffffffffffffffffffffffffffffff168373ffffffffffffffffffffffffffffffffffffffff167f8752a472e571a816aea92eec8dae9baf628e840f4929fbcc2d155e6233ff68a78660405161075b9190610f0c565b60405180910390a35050505050565b5f6107753385610bc6565b5f60025f3373ffffffffffffffffffffffffffffffffffffffff1673ffffffffffffffffffffffffffffffffffffffff1681526020019081526020015f205f8673ffffffffffffffffffffffffffffffffffffffff1673ffffffffffffffffffffffffffffffffffffffff1681526020019081526020015f2090505f8160020154825f0154610804919061135c565b905084811015610849576040517f08c379a00000000000000000000000000000000000000000000000000000000081526004016108409061154e565b60405180910390fd5b848260020154106108735784826002015f828254610867919061156c565b925050819055506108aa565b5f826002015486610884919061156c565b90505f836002018190555080835f015f8282546108a1919061156c565b92505081905550505b8573ffffffffffffffffffffffffffffffffffffffff1663a9059cbb85876040518363ffffffff1660e01b81526004016108e592919061159f565b6020604051808303815f875af1158015610901573d5f5f3e3d5ffd5b505050506040513d601f19601f820116820180604052508101906109259190611471565b610964576040517f08c379a000000000000000000000000000000000000000000000000000000000815260040161095b906114e6565b60405180910390fd5b8573ffffffffffffffffffffffffffffffffffffffff163373ffffffffffffffffffffffffffffffffffffffff167fd1c19fbcd4551a5edfb66d43d2e337c04837afda3482b42bdf569a8fccdae5fb876040516109c19190610f0c565b60405180910390a384925050509392505050565b5f5f60025f8573ffffffffffffffffffffffffffffffffffffffff1673ffffffffffffffffffffffffffffffffffffffff1681526020019081526020015f205f8473ffffffffffffffffffffffffffffffffffffffff1673ffffffffffffffffffffffffffffffffffffffff1681526020019081526020015f2090505f815f01541480610a6557505f8160010154145b15610a73575f915050610b3f565b5f816001015442610a84919061156c565b90505f60015f8673ffffffffffffffffffffffffffffffffffffffff1673ffffffffffffffffffffffffffffffffffffffff1681526020019081526020015f205f9054906101000a90046fffffffffffffffffffffffffffffffff1690505f6301e133806b033b2e3c9fd0803ce8000000610aff91906115c6565b83836fffffffffffffffffffffffffffffffff16865f0154610b2191906115c6565b610b2b91906115c6565b610b359190611634565b9050809450505050505b92915050565b5f5f9054906101000a900473ffffffffffffffffffffffffffffffffffffffff1681565b6002602052815f5260405f20602052805f5260405f205f9150915050805f0154908060010154908060020154905083565b6001602052805f5260405f205f915054906101000a90046fffffffffffffffffffffffffffffffff1681565b5f610bd183836109d5565b90505f811115610ce0575f60025f8573ffffffffffffffffffffffffffffffffffffffff1673ffffffffffffffffffffffffffffffffffffffff1681526020019081526020015f205f8473ffffffffffffffffffffffffffffffffffffffff1673ffffffffffffffffffffffffffffffffffffffff1681526020019081526020015f20905081816002015f828254610c69919061135c565b925050819055504281600101819055508273ffffffffffffffffffffffffffffffffffffffff168473ffffffffffffffffffffffffffffffffffffffff167f57e3ff78634498a95cc142cc79382787468c61ca807a728c4454e8095123e39784604051610cd69190610f0c565b60405180910390a3505b505050565b604051806101e00160405280610cf9610e46565b81526020015f6fffffffffffffffffffffffffffffffff1681526020015f6fffffffffffffffffffffffffffffffff1681526020015f6fffffffffffffffffffffffffffffffff1681526020015f6fffffffffffffffffffffffffffffffff1681526020015f6fffffffffffffffffffffffffffffffff1681526020015f64ffffffffff1681526020015f61ffff1681526020015f73ffffffffffffffffffffffffffffffffffffffff1681526020015f73ffffffffffffffffffffffffffffffffffffffff1681526020015f73ffffffffffffffffffffffffffffffffffffffff1681526020015f73ffffffffffffffffffffffffffffffffffffffff1681526020015f6fffffffffffffffffffffffffffffffff1681526020015f6fffffffffffffffffffffffffffffffff1681526020015f6fffffffffffffffffffffffffffffffff1681525090565b60405180602001604052805f81525090565b5f5ffd5b5f73ffffffffffffffffffffffffffffffffffffffff82169050919050565b5f610e8582610e5c565b9050919050565b610e9581610e7b565b8114610e9f575f5ffd5b50565b5f81359050610eb081610e8c565b92915050565b5f5f60408385031215610ecc57610ecb610e58565b5b5f610ed985828601610ea2565b9250506020610eea85828601610ea2565b9150509250929050565b5f819050919050565b610f0681610ef4565b82525050565b5f602082019050610f1f5f830184610efd565b92915050565b5f6fffffffffffffffffffffffffffffffff82169050919050565b610f4981610f25565b8114610f53575f5ffd5b50565b5f81359050610f6481610f40565b92915050565b5f5f60408385031215610f8057610f7f610e58565b5b5f610f8d85828601610ea2565b9250506020610f9e85828601610f56565b9150509250929050565b5f60208284031215610fbd57610fbc610e58565b5b5f610fca84828501610ea2565b91505092915050565b610fdc81610ef4565b82525050565b602082015f820151610ff65f850182610fd3565b50505050565b61100581610f25565b82525050565b5f64ffffffffff82169050919050565b6110248161100b565b82525050565b5f61ffff82169050919050565b6110408161102a565b82525050565b61104f81610e7b565b82525050565b6101e082015f82015161106a5f850182610fe2565b50602082015161107d6020850182610ffc565b5060408201516110906040850182610ffc565b5060608201516110a36060850182610ffc565b5060808201516110b66080850182610ffc565b5060a08201516110c960a0850182610ffc565b5060c08201516110dc60c085018261101b565b5060e08201516110ef60e0850182611037565b50610100820151611104610100850182611046565b50610120820151611119610120850182611046565b5061014082015161112e610140850182611046565b50610160820151611143610160850182611046565b50610180820151611158610180850182610ffc565b506101a082015161116d6101a0850182610ffc565b506101c08201516111826101c0850182610ffc565b50505050565b5f6101e08201905061119c5f830184611055565b92915050565b6111ab81610ef4565b81146111b5575f5ffd5b50565b5f813590506111c6816111a2565b92915050565b6111d58161102a565b81146111df575f5ffd5b50565b5f813590506111f0816111cc565b92915050565b5f5f5f5f6080858703121561120e5761120d610e58565b5b5f61121b87828801610ea2565b945050602061122c878288016111b8565b935050604061123d87828801610ea2565b925050606061124e878288016111e2565b91505092959194509250565b5f5f5f6060848603121561127157611270610e58565b5b5f61127e86828701610ea2565b935050602061128f868287016111b8565b92505060406112a086828701610ea2565b9150509250925092565b6112b381610e7b565b82525050565b5f6020820190506112cc5f8301846112aa565b92915050565b5f6060820190506112e55f830186610efd565b6112f26020830185610efd565b6112ff6040830184610efd565b949350505050565b61131081610f25565b82525050565b5f6020820190506113295f830184611307565b92915050565b7f4e487b71000000000000000000000000000000000000000000000000000000005f52601160045260245ffd5b5f61136682610ef4565b915061137183610ef4565b92508282019050808211156113895761138861132f565b5b92915050565b5f82825260208201905092915050565b7f4e6f74206f776e657200000000000000000000000000000000000000000000005f82015250565b5f6113d360098361138f565b91506113de8261139f565b602082019050919050565b5f6020820190508181035f830152611400816113c7565b9050919050565b5f60608201905061141a5f8301866112aa565b61142760208301856112aa565b6114346040830184610efd565b949350505050565b5f8115159050919050565b6114508161143c565b811461145a575f5ffd5b50565b5f8151905061146b81611447565b92915050565b5f6020828403121561148657611485610e58565b5b5f6114938482850161145d565b91505092915050565b7f5472616e73666572206661696c656400000000000000000000000000000000005f82015250565b5f6114d0600f8361138f565b91506114db8261149c565b602082019050919050565b5f6020820190508181035f8301526114fd816114c4565b9050919050565b7f496e73756666696369656e742062616c616e63650000000000000000000000005f82015250565b5f61153860148361138f565b915061154382611504565b602082019050919050565b5f6020820190508181035f8301526115658161152c565b9050919050565b5f61157682610ef4565b915061158183610ef4565b92508282039050818111156115995761159861132f565b5b92915050565b5f6040820190506115b25f8301856112aa565b6115bf6020830184610efd565b9392505050565b5f6115d082610ef4565b91506115db83610ef4565b92508282026115e981610ef4565b91508282048414831517611600576115ff61132f565b5b5092915050565b7f4e487b71000000000000000000000000000000000000000000000000000000005f52601260045260245ffd5b5f61163e82610ef4565b915061164983610ef4565b92508261165957611658611607565b5b82820490509291505056fea2646970667358221220d6ac67c7b88366ecddb8ff73223d89e8d86b2de86cd273e86c3a3fa7cdf3bd3f64736f6c634300081c0033","linkReferences":{}},"methodIdentifiers":{"calculateInterest(address,address)":"87092940","deposits(address,address)":"8f601f66","getCurrentBalance(address,address)":"041b7a06","getReserveData(address)":"35ea6a75","liquidityRates(address)":"ae31d621","owner()":"8da5cb5b","setLiquidityRate(address,uint128)":"10361039","supply(address,uint256,address,uint16)":"617ba037","withdraw(address,uint256,address)":"69328dec"},"id":52}