{"abi":[{"type":"receive","stateMutability":"payable"},{"type":"function","name":"AAVE_POOL","inputs":[],"outputs":[{"name":"","type":"address","internalType":"address"}],"stateMutability":"view"},{"type":"function","name":"L2_MESSENGER","inputs":[],"outputs":[{"name":"","type":"address","internalType":"address"}],"stateMutability":"view"},{"type":"function","name":"UNISWAP_V3_ROUTER","inputs":[],"outputs":[{"name":"","type":"address","internalType":"address"}],"stateMutability":"view"},{"type":"function","name":"ZERO_X_EXCHANGE","inputs":[],"outputs":[{"name":"","type":"address","internalType":"address"}],"stateMutability":"view"},{"type":"function","name":"allowedTargets","inputs":[{"name":"","type":"address","internalType":"address"}],"outputs":[{"name":"","type":"bool","internalType":"bool"}],"stateMutability":"view"},{"type":"function","name":"authorizeSessionKey","inputs":[{"name":"_key","type":"address","internalType":"address"},{"name":"_authorized","type":"bool","internalType":"bool"}],"outputs":[],"stateMutability":"nonpayable"},{"type":"function","name":"authorizeSessionKey","inputs":[{"name":"_key","type":"address","internalType":"address"},{"name":"_authorized","type":"bool","internalType":"bool"},{"name":"_expiry","type":"uint256","internalType":"uint256"}],"outputs":[],"stateMutability":"nonpayable"},{"type":"function","name":"configureRecovery","inputs":[{"name":"_guardians","type":"address[]","internalType":"address[]"},{"name":"_threshold","type":"uint256","internalType":"uint256"}],"outputs":[],"stateMutability":"nonpayable"},{"type":"function","name":"dailyLimit","inputs":[],"outputs":[{"name":"","type":"uint256","internalType":"uint256"}],"stateMutability":"view"},{"type":"function","name":"dailySpent","inputs":[],"outputs":[{"name":"","type":"uint256","internalType":"uint256"}],"stateMutability":"view"},{"type":"function","name":"emergencyWithdraw","inputs":[{"name":"_to","type":"address","internalType":"address"},{"name":"_amount","type":"uint256","internalType":"uint256"}],"outputs":[],"stateMutability":"nonpayable"},{"type":"function","name":"executeBatch","inputs":[{"name":"_targets","type":"address[]","internalType":"address[]"},{"name":"_datas","type":"bytes[]","internalType":"bytes[]"},{"name":"_values","type":"uint256[]","internalType":"uint256[]"}],"outputs":[],"stateMutability":"payable"},{"type":"function","name":"executeIntent","inputs":[{"name":"_target","type":"address","internalType":"address"},{"name":"_data","type":"bytes","internalType":"bytes"}],"outputs":[],"stateMutability":"payable"},{"type":"function","name":"getRemainingDailyAllowance","inputs":[],"outputs":[{"name":"","type":"uint256","internalType":"uint256"}],"stateMutability":"view"},{"type":"function","name":"guardians","inputs":[{"name":"","type":"uint256","internalType":"uint256"}],"outputs":[{"name":"","type":"address","internalType":"address"}],"stateMutability":"view"},{"type":"function","name":"hasVotedForRecovery","inputs":[{"name":"","type":"address","internalType":"address"}],"outputs":[{"name":"","type":"bool","internalType":"bool"}],"stateMutability":"view"},{"type":"function","name":"initialize","inputs":[{"name":"_owner","type":"address","internalType":"address"}],"outputs":[],"stateMutability":"nonpayable"},{"type":"function","name":"isGuardian","inputs":[{"name":"","type":"address","internalType":"address"}],"outputs":[{"name":"","type":"bool","internalType":"bool"}],"stateMutability":"view"},{"type":"function","name":"lastResetDay","inputs":[],"outputs":[{"name":"","type":"uint256","internalType":"uint256"}],"stateMutability":"view"},{"type":"function","name":"newOwnerCandidate","inputs":[],"outputs":[{"name":"","type":"address","internalType":"address"}],"stateMutability":"view"},{"type":"function","name":"owner","inputs":[],"outputs":[{"name":"","type":"address","internalType":"address"}],"stateMutability":"view"},{"type":"function","name":"recoveryThreshold","inputs":[],"outputs":[{"name":"","type":"uint256","internalType":"uint256"}],"stateMutability":"view"},{"type":"function","name":"recoveryVotes","inputs":[],"outputs":[{"name":"","type":"uint256","internalType":"uint256"}],"stateMutability":"view"},{"type":"function","name":"sendCrossChainIntent","inputs":[{"name":"_destinationChainId","type":"uint256","internalType":"uint256"},{"name":"_target","type":"address","internalType":"address"},{"name":"_data","type":"bytes","internalType":"bytes"}],"outputs":[],"stateMutability":"payable"},{"type":"function","name":"sessionKeyExpiry","inputs":[{"name":"","type":"address","internalType":"address"}],"outputs":[{"name":"","type":"uint256","internalType":"uint256"}],"stateMutability":"view"},{"type":"function","name":"sessionKeys","inputs":[{"name":"","type":"address","internalType":"address"}],"outputs":[{"name":"","type":"bool","internalType":"bool"}],"stateMutability":"view"},{"type":"function","name":"setAllowedTarget","inputs":[{"name":"_target","type":"address","internalType":"address"},{"name":"_allowed","type":"bool","internalType":"bool"}],"outputs":[],"stateMutability":"nonpayable"},{"type":"function","name":"setDailyLimit","inputs":[{"name":"_limit","type":"uint256","internalType":"uint256"}],"outputs":[],"stateMutability":"nonpayable"},{"type":"function","name":"setTokenDailyLimit","inputs":[{"name":"_token","type":"address","internalType":"address"},{"name":"_limit","type":"uint256","internalType":"uint256"}],"outputs":[],"stateMutability":"nonpayable"},{"type":"function","name":"tokenDailyLimits","inputs":[{"name":"","type":"address","internalType":"address"}],"outputs":[{"name":"","type":"uint256","internalType":"uint256"}],"stateMutability":"view"},{"type":"function","name":"tokenDailySpent","inputs":[{"name":"","type":"address","internalType":"address"}],"outputs":[{"name":"","type":"uint256","internalType":"uint256"}],"stateMutability":"view"},{"type":"function","name":"tokenLastResetDay","inputs":[{"name":"","type":"address","internalType":"address"}],"outputs":[{"name":"","type":"uint256","internalType":"uint256"}],"stateMutability":"view"},{"type":"function","name":"voteForRecovery","inputs":[{"name":"_newOwner","type":"address","internalType":"address"}],"outputs":[],"stateMutability":"nonpayable"},{"type":"event","name":"DailyLimitReset","inputs":[{"name":"newDay","type":"uint256","indexed":false,"internalType":"uint256"}],"anonymous":false},{"type":"event","name":"DailyLimitSet","inputs":[{"name":"limit","type":"uint256","indexed":false,"internalType":"uint256"}],"anonymous":false},{"type":"event","name":"IntentExecuted","inputs":[{"name":"target","type":"address","indexed":true,"internalType":"address"},{"name":"data","type":"bytes","indexed":false,"internalType":"bytes"},{"name":"value","type":"uint256","indexed":false,"internalType":"uint256"}],"anonymous":false},{"type":"event","name":"RecoveryExecuted","inputs":[{"name":"newOwner","type":"address","indexed":false,"internalType":"address"}],"anonymous":false},{"type":"event","name":"SessionKeyAuthorized","inputs":[{"name":"key","type":"address","indexed":true,"internalType":"address"},{"name":"authorized","type":"bool","indexed":false,"internalType":"bool"},{"name":"expiry","type":"uint256","indexed":false,"internalType":"uint256"}],"anonymous":false},{"type":"event","name":"SocialRecoveryConfigured","inputs":[{"name":"guardians","type":"address[]","indexed":false,"internalType":"address[]"},{"name":"threshold","type":"uint256","indexed":false,"internalType":"uint256"}],"anonymous":false},{"type":"event","name":"TargetAllowed","inputs":[{"name":"target","type":"address","indexed":true,"internalType":"address"},{"name":"allowed","type":"bool","indexed":false,"internalType":"bool"}],"anonymous":false},{"type":"event","name":"TokenDailyLimitReset","inputs":[{"name":"token","type":"address","indexed":true,"internalType":"address"},{"name":"newDay","type":"uint256","indexed":false,"internalType":"uint256"}],"anonymous":false},{"type":"event","name":"TokenDailyLimitSet","inputs":[{"name":"token","type":"address","indexed":true,"internalType":"address"},{"name":"limit","type":"uint256","indexed":false,"internalType":"uint256"}],"anonymous":false}],"bytecode":{"object":"0x6080604052348015600e575f5ffd5b50613fdd8061001c5f395ff3fe6080604052600436106101f1575f3560e01c806388e3a34f1161010c578063c4d66de81161009f578063da5a8e481161006e578063da5a8e48146106fc578063e83bf54214610724578063eced73201461074c578063f560c73414610768578063f90da50f146107a4576101f8565b8063c4d66de81461065a578063ca1dd22e14610682578063cf229dd2146106aa578063d091b550146106d2576101f8565b8063b20d30a9116100db578063b20d30a91461059e578063b77ce564146105c6578063b7b8d604146105e2578063b8fe8d5f1461061e576101f8565b806388e3a34f146104e85780638da5cb5b146105245780638f2a90991461054e57806395ccea6714610576576101f8565b80633596b46f116101845780635e2eff73116101535780635e2eff731461044e57806367eeba0c1461046a578063852803f71461049457806385ec82cd146104be576101f8565b80633596b46f146103825780633b2639c1146103be5780633cac8e07146103fa57806341c64a2f14610424576101f8565b80631259a5c8116101c05780631259a5c8146102b65780631534bf23146102e05780631c8123d61461031c5780631d62575914610346576101f8565b806308a01675146101fc5780630bc6b89c146102265780630c68ba21146102505780630d3c4bc71461028c576101f8565b366101f857005b5f5ffd5b348015610207575f5ffd5b506102106107cc565b60405161021d9190612d76565b60405180910390f35b348015610231575f5ffd5b5061023a6107e4565b6040516102479190612da7565b60405180910390f35b34801561025b575f5ffd5b5061027660048036038101906102719190612df2565b6107ea565b6040516102839190612e37565b60405180910390f35b348015610297575f5ffd5b506102a0610807565b6040516102ad9190612d76565b60405180910390f35b3480156102c1575f5ffd5b506102ca61081f565b6040516102d79190612da7565b60405180910390f35b3480156102eb575f5ffd5b5061030660048036038101906103019190612df2565b610825565b6040516103139190612e37565b60405180910390f35b348015610327575f5ffd5b50610330610842565b60405161033d9190612da7565b60405180910390f35b348015610351575f5ffd5b5061036c60048036038101906103679190612df2565b610848565b6040516103799190612da7565b60405180910390f35b34801561038d575f5ffd5b506103a860048036038101906103a39190612df2565b61085d565b6040516103b59190612da7565b60405180910390f35b3480156103c9575f5ffd5b506103e460048036038101906103df9190612df2565b610872565b6040516103f19190612da7565b60405180910390f35b348015610405575f5ffd5b5061040e610887565b60405161041b9190612da7565b60405180910390f35b34801561042f575f5ffd5b506104386108d8565b6040516104459190612d76565b60405180910390f35b61046860048036038101906104639190612edb565b6108f0565b005b348015610475575f5ffd5b5061047e610c07565b60405161048b9190612da7565b60405180910390f35b34801561049f575f5ffd5b506104a8610c0d565b6040516104b59190612d76565b60405180910390f35b3480156104c9575f5ffd5b506104d2610c25565b6040516104df9190612da7565b60405180910390f35b3480156104f3575f5ffd5b5061050e60048036038101906105099190612df2565b610c2b565b60405161051b9190612da7565b60405180910390f35b34801561052f575f5ffd5b50610538610c40565b6040516105459190612d76565b60405180910390f35b348015610559575f5ffd5b50610574600480360381019061056f9190612df2565b610c64565b005b348015610581575f5ffd5b5061059c60048036038101906105979190612f4c565b6110ea565b005b3480156105a9575f5ffd5b506105c460048036038101906105bf9190612f8a565b61125b565b005b6105e060048036038101906105db91906130b4565b611360565b005b3480156105ed575f5ffd5b5061060860048036038101906106039190612df2565b61193d565b6040516106159190612e37565b60405180910390f35b348015610629575f5ffd5b50610644600480360381019061063f9190612df2565b61195a565b6040516106519190612e37565b60405180910390f35b348015610665575f5ffd5b50610680600480360381019061067b9190612df2565b611977565b005b34801561068d575f5ffd5b506106a860048036038101906106a3919061318e565b611ba6565b005b3480156106b5575f5ffd5b506106d060048036038101906106cb91906131cc565b611d10565b005b3480156106dd575f5ffd5b506106e66120fa565b6040516106f39190612d76565b60405180910390f35b348015610707575f5ffd5b50610722600480360381019061071d919061318e565b61211f565b005b34801561072f575f5ffd5b5061074a60048036038101906107459190612f4c565b6122cd565b005b61076660048036038101906107619190613229565b612425565b005b348015610773575f5ffd5b5061078e60048036038101906107899190612f8a565b6127e7565b60405161079b9190612d76565b60405180910390f35b3480156107af575f5ffd5b506107ca60048036038101906107c59190613286565b612822565b005b73a238dd80c259a72e81d7e4664a9801593f98d1c581565b60055481565b600c602052805f5260405f205f915054906101000a900460ff1681565b73420000000000000000000000000000000000002381565b60065481565b600d602052805f5260405f205f915054906101000a900460ff1681565b600b5481565b6002602052805f5260405f205f915090505481565b6008602052805f5260405f205f915090505481565b6009602052805f5260405f205f915090505481565b5f5f62015180426108989190613330565b90506006548111156108af576004549150506108d5565b600554600454116108c0575f6108d1565b6005546004546108d09190613360565b5b9150505b90565b732626664c2603336e57b271c5c0b26f421741e48181565b60015f3373ffffffffffffffffffffffffffffffffffffffff1673ffffffffffffffffffffffffffffffffffffffff1681526020019081526020015f205f9054906101000a900460ff16610979576040517f08c379a0000000000000000000000000000000000000000000000000000000008152600401610970906133ed565b60405180910390fd5b5f60025f3373ffffffffffffffffffffffffffffffffffffffff1673ffffffffffffffffffffffffffffffffffffffff1681526020019081526020015f20541480610a01575060025f3373ffffffffffffffffffffffffffffffffffffffff1673ffffffffffffffffffffffffffffffffffffffff1681526020019081526020015f20544211155b610a40576040517f08c379a0000000000000000000000000000000000000000000000000000000008152600401610a3790613455565b60405180910390fd5b610a49346129d1565b5f73420000000000000000000000000000000000002373ffffffffffffffffffffffffffffffffffffffff163486868686604051602401610a8d94939291906134cd565b6040516020818303038152906040527f7056f41f000000000000000000000000000000000000000000000000000000007bffffffffffffffffffffffffffffffffffffffffffffffffffffffff19166020820180517bffffffffffffffffffffffffffffffffffffffffffffffffffffffff8381831617835250505050604051610b17919061355d565b5f6040518083038185875af1925050503d805f8114610b51576040519150601f19603f3d011682016040523d82523d5f602084013e610b56565b606091505b5050905080610b9a576040517f08c379a0000000000000000000000000000000000000000000000000000000008152600401610b91906135bd565b60405180910390fd5b73420000000000000000000000000000000000002373ffffffffffffffffffffffffffffffffffffffff167ffe42058c9fdfbcffba4fa18b805802d0f31f46167296d79c65887acbe13d3d4d848434604051610bf8939291906135db565b60405180910390a25050505050565b60045481565b73def1c0ded9bec7f1a1670819833240f027b25eff81565b600e5481565b6007602052805f5260405f205f915090505481565b5f5f9054906101000a900473ffffffffffffffffffffffffffffffffffffffff1681565b600c5f3373ffffffffffffffffffffffffffffffffffffffff1673ffffffffffffffffffffffffffffffffffffffff1681526020019081526020015f205f9054906101000a900460ff16610ced576040517f08c379a0000000000000000000000000000000000000000000000000000000008152600401610ce490613655565b60405180910390fd5b600f5f9054906101000a900473ffffffffffffffffffffffffffffffffffffffff1673ffffffffffffffffffffffffffffffffffffffff168173ffffffffffffffffffffffffffffffffffffffff1614610e385780600f5f6101000a81548173ffffffffffffffffffffffffffffffffffffffff021916908373ffffffffffffffffffffffffffffffffffffffff1602179055505f600e819055505f5f90505b600a80549050811015610e36575f600d5f600a8481548110610db257610db1613673565b5b905f5260205f20015f9054906101000a900473ffffffffffffffffffffffffffffffffffffffff1673ffffffffffffffffffffffffffffffffffffffff1673ffffffffffffffffffffffffffffffffffffffff1681526020019081526020015f205f6101000a81548160ff0219169083151502179055508080600101915050610d8d565b505b600d5f3373ffffffffffffffffffffffffffffffffffffffff1673ffffffffffffffffffffffffffffffffffffffff1681526020019081526020015f205f9054906101000a900460ff1615610ec2576040517f08c379a0000000000000000000000000000000000000000000000000000000008152600401610eb9906136ea565b60405180910390fd5b6001600d5f3373ffffffffffffffffffffffffffffffffffffffff1673ffffffffffffffffffffffffffffffffffffffff1681526020019081526020015f205f6101000a81548160ff021916908315150217905550600e5f815480929190610f2990613708565b9190505550600b54600e54106110e757600f5f9054906101000a900473ffffffffffffffffffffffffffffffffffffffff165f5f6101000a81548173ffffffffffffffffffffffffffffffffffffffff021916908373ffffffffffffffffffffffffffffffffffffffff1602179055505f600f5f6101000a81548173ffffffffffffffffffffffffffffffffffffffff021916908373ffffffffffffffffffffffffffffffffffffffff1602179055505f600e819055505f5f90505b600a8054905081101561108e575f600d5f600a848154811061100a57611009613673565b5b905f5260205f20015f9054906101000a900473ffffffffffffffffffffffffffffffffffffffff1673ffffffffffffffffffffffffffffffffffffffff1673ffffffffffffffffffffffffffffffffffffffff1681526020019081526020015f205f6101000a81548160ff0219169083151502179055508080600101915050610fe5565b507ffcd2de31341801b7fd80895c780aae50c1505fd674ff1b9b9764c56c633434d65f5f9054906101000a900473ffffffffffffffffffffffffffffffffffffffff166040516110de9190612d76565b60405180910390a15b50565b5f5f9054906101000a900473ffffffffffffffffffffffffffffffffffffffff1673ffffffffffffffffffffffffffffffffffffffff163373ffffffffffffffffffffffffffffffffffffffff16148061116f57503073ffffffffffffffffffffffffffffffffffffffff163373ffffffffffffffffffffffffffffffffffffffff16145b6111ae576040517f08c379a00000000000000000000000000000000000000000000000000000000081526004016111a590613799565b60405180910390fd5b5f8273ffffffffffffffffffffffffffffffffffffffff16826040516111d3906137da565b5f6040518083038185875af1925050503d805f811461120d576040519150601f19603f3d011682016040523d82523d5f602084013e611212565b606091505b5050905080611256576040517f08c379a000000000000000000000000000000000000000000000000000000000815260040161124d90613838565b60405180910390fd5b505050565b5f5f9054906101000a900473ffffffffffffffffffffffffffffffffffffffff1673ffffffffffffffffffffffffffffffffffffffff163373ffffffffffffffffffffffffffffffffffffffff1614806112e057503073ffffffffffffffffffffffffffffffffffffffff163373ffffffffffffffffffffffffffffffffffffffff16145b61131f576040517f08c379a000000000000000000000000000000000000000000000000000000000815260040161131690613799565b60405180910390fd5b806004819055507fea70a31e4e5eb24c9509aa5d26266f5837aaa56d74f4f815ca7f23aaaf296d6a816040516113559190612da7565b60405180910390a150565b60015f3373ffffffffffffffffffffffffffffffffffffffff1673ffffffffffffffffffffffffffffffffffffffff1681526020019081526020015f205f9054906101000a900460ff166113e9576040517f08c379a00000000000000000000000000000000000000000000000000000000081526004016113e0906133ed565b60405180910390fd5b5f60025f3373ffffffffffffffffffffffffffffffffffffffff1673ffffffffffffffffffffffffffffffffffffffff1681526020019081526020015f20541480611471575060025f3373ffffffffffffffffffffffffffffffffffffffff1673ffffffffffffffffffffffffffffffffffffffff1681526020019081526020015f20544211155b6114b0576040517f08c379a00000000000000000000000000000000000000000000000000000000081526004016114a790613455565b60405180910390fd5b83839050868690501480156114ca57508181905084849050145b611509576040517f08c379a0000000000000000000000000000000000000000000000000000000008152600401611500906138a0565b60405180910390fd5b5f5f90505f5f90505b878790508110156116015760035f89898481811061153357611532613673565b5b90506020020160208101906115489190612df2565b73ffffffffffffffffffffffffffffffffffffffff1673ffffffffffffffffffffffffffffffffffffffff1681526020019081526020015f205f9054906101000a900460ff166115cd576040517f08c379a00000000000000000000000000000000000000000000000000000000081526004016115c490613908565b60405180910390fd5b8383828181106115e0576115df613673565b5b90506020020135826115f29190613926565b91508080600101915050611512565b5061160b816129d1565b5f5f90505b878790508110156119335760448686838181106116305761162f613673565b5b90506020028101906116429190613965565b905010611761575f86868381811061165d5761165c613673565b5b905060200281019061166f9190613965565b5f90600492611680939291906139cf565b9061168b9190613a4a565b905063a9059cbb60e01b817bffffffffffffffffffffffffffffffffffffffffffffffffffffffff191614806116e6575063095ea7b360e01b817bffffffffffffffffffffffffffffffffffffffffffffffffffffffff1916145b1561175f5761175e89898481811061170157611700613673565b5b90506020020160208101906117169190612df2565b88888581811061172957611728613673565b5b905060200281019061173b9190613965565b602490809261174c939291906139cf565b8101906117599190612f8a565b612aa1565b5b505b5f88888381811061177557611774613673565b5b905060200201602081019061178a9190612df2565b73ffffffffffffffffffffffffffffffffffffffff168585848181106117b3576117b2613673565b5b905060200201358888858181106117cd576117cc613673565b5b90506020028101906117df9190613965565b6040516117ed929190613acc565b5f6040518083038185875af1925050503d805f8114611827576040519150601f19603f3d011682016040523d82523d5f602084013e61182c565b606091505b5050905080611870576040517f08c379a000000000000000000000000000000000000000000000000000000000815260040161186790613b2e565b60405180910390fd5b88888381811061188357611882613673565b5b90506020020160208101906118989190612df2565b73ffffffffffffffffffffffffffffffffffffffff167ffe42058c9fdfbcffba4fa18b805802d0f31f46167296d79c65887acbe13d3d4d8888858181106118e2576118e1613673565b5b90506020028101906118f49190613965565b88888781811061190757611906613673565b5b9050602002013560405161191d939291906135db565b60405180910390a2508080600101915050611610565b5050505050505050565b6001602052805f5260405f205f915054906101000a900460ff1681565b6003602052805f5260405f205f915054906101000a900460ff1681565b5f73ffffffffffffffffffffffffffffffffffffffff165f5f9054906101000a900473ffffffffffffffffffffffffffffffffffffffff1673ffffffffffffffffffffffffffffffffffffffff1614611a05576040517f08c379a00000000000000000000000000000000000000000000000000000000081526004016119fc90613b96565b60405180910390fd5b805f5f6101000a81548173ffffffffffffffffffffffffffffffffffffffff021916908373ffffffffffffffffffffffffffffffffffffffff160217905550670de0b6b3a76400006004819055506201518042611a629190613330565b600681905550600160035f732626664c2603336e57b271c5c0b26f421741e48173ffffffffffffffffffffffffffffffffffffffff1673ffffffffffffffffffffffffffffffffffffffff1681526020019081526020015f205f6101000a81548160ff021916908315150217905550600160035f73def1c0ded9bec7f1a1670819833240f027b25eff73ffffffffffffffffffffffffffffffffffffffff1673ffffffffffffffffffffffffffffffffffffffff1681526020019081526020015f205f6101000a81548160ff021916908315150217905550600160035f73a238dd80c259a72e81d7e4664a9801593f98d1c573ffffffffffffffffffffffffffffffffffffffff1673ffffffffffffffffffffffffffffffffffffffff1681526020019081526020015f205f6101000a81548160ff02191690831515021790555050565b5f5f9054906101000a900473ffffffffffffffffffffffffffffffffffffffff1673ffffffffffffffffffffffffffffffffffffffff163373ffffffffffffffffffffffffffffffffffffffff161480611c2b57503073ffffffffffffffffffffffffffffffffffffffff163373ffffffffffffffffffffffffffffffffffffffff16145b611c6a576040517f08c379a0000000000000000000000000000000000000000000000000000000008152600401611c6190613799565b60405180910390fd5b8060035f8473ffffffffffffffffffffffffffffffffffffffff1673ffffffffffffffffffffffffffffffffffffffff1681526020019081526020015f205f6101000a81548160ff0219169083151502179055508173ffffffffffffffffffffffffffffffffffffffff167fa15b89ddfd4f8f39b42c00d0e35440aa574da8d20d9e1d886e42edf16ce9ad4c82604051611d049190612e37565b60405180910390a25050565b5f5f9054906101000a900473ffffffffffffffffffffffffffffffffffffffff1673ffffffffffffffffffffffffffffffffffffffff163373ffffffffffffffffffffffffffffffffffffffff161480611d9557503073ffffffffffffffffffffffffffffffffffffffff163373ffffffffffffffffffffffffffffffffffffffff16145b611dd4576040517f08c379a0000000000000000000000000000000000000000000000000000000008152600401611dcb90613799565b60405180910390fd5b5f81118015611de65750828290508111155b611e25576040517f08c379a0000000000000000000000000000000000000000000000000000000008152600401611e1c90613bfe565b60405180910390fd5b5f5f90505b600a80549050811015611ed3575f600c5f600a8481548110611e4f57611e4e613673565b5b905f5260205f20015f9054906101000a900473ffffffffffffffffffffffffffffffffffffffff1673ffffffffffffffffffffffffffffffffffffffff1673ffffffffffffffffffffffffffffffffffffffff1681526020019081526020015f205f6101000a81548160ff0219169083151502179055508080600101915050611e2a565b50600a5f611ee19190612cfe565b5f5f90505b838390508110156120b257600c5f858584818110611f0757611f06613673565b5b9050602002016020810190611f1c9190612df2565b73ffffffffffffffffffffffffffffffffffffffff1673ffffffffffffffffffffffffffffffffffffffff1681526020019081526020015f205f9054906101000a900460ff1615611fa2576040517f08c379a0000000000000000000000000000000000000000000000000000000008152600401611f9990613c66565b60405180910390fd5b6001600c5f868685818110611fba57611fb9613673565b5b9050602002016020810190611fcf9190612df2565b73ffffffffffffffffffffffffffffffffffffffff1673ffffffffffffffffffffffffffffffffffffffff1681526020019081526020015f205f6101000a81548160ff021916908315150217905550600a84848381811061203357612032613673565b5b90506020020160208101906120489190612df2565b908060018154018082558091505060019003905f5260205f20015f9091909190916101000a81548173ffffffffffffffffffffffffffffffffffffffff021916908373ffffffffffffffffffffffffffffffffffffffff1602179055508080600101915050611ee6565b5080600b819055507f386d44973d39d13a72e512f01011d1944a97cc0dce5846c1645d71a4eab1112f8383836040516120ed93929190613d40565b60405180910390a1505050565b600f5f9054906101000a900473ffffffffffffffffffffffffffffffffffffffff1681565b5f5f9054906101000a900473ffffffffffffffffffffffffffffffffffffffff1673ffffffffffffffffffffffffffffffffffffffff163373ffffffffffffffffffffffffffffffffffffffff1614806121a457503073ffffffffffffffffffffffffffffffffffffffff163373ffffffffffffffffffffffffffffffffffffffff16145b6121e3576040517f08c379a00000000000000000000000000000000000000000000000000000000081526004016121da90613799565b60405180910390fd5b8060015f8473ffffffffffffffffffffffffffffffffffffffff1673ffffffffffffffffffffffffffffffffffffffff1681526020019081526020015f205f6101000a81548160ff0219169083151502179055505f60025f8473ffffffffffffffffffffffffffffffffffffffff1673ffffffffffffffffffffffffffffffffffffffff1681526020019081526020015f20819055508173ffffffffffffffffffffffffffffffffffffffff167f287174e88e517fa8684e830e2ba6ac587b3d5fcbb5de9d18ed82ff4b8043ffa4825f6040516122c1929190613db2565b60405180910390a25050565b5f5f9054906101000a900473ffffffffffffffffffffffffffffffffffffffff1673ffffffffffffffffffffffffffffffffffffffff163373ffffffffffffffffffffffffffffffffffffffff16148061235257503073ffffffffffffffffffffffffffffffffffffffff163373ffffffffffffffffffffffffffffffffffffffff16145b612391576040517f08c379a000000000000000000000000000000000000000000000000000000000815260040161238890613799565b60405180910390fd5b8060075f8473ffffffffffffffffffffffffffffffffffffffff1673ffffffffffffffffffffffffffffffffffffffff1681526020019081526020015f20819055508173ffffffffffffffffffffffffffffffffffffffff167f6f35d313ff407fe71e5b1564690a79d77193fb375f700748a8f9ce5e8698e4fa826040516124199190612da7565b60405180910390a25050565b60015f3373ffffffffffffffffffffffffffffffffffffffff1673ffffffffffffffffffffffffffffffffffffffff1681526020019081526020015f205f9054906101000a900460ff166124ae576040517f08c379a00000000000000000000000000000000000000000000000000000000081526004016124a5906133ed565b60405180910390fd5b5f60025f3373ffffffffffffffffffffffffffffffffffffffff1673ffffffffffffffffffffffffffffffffffffffff1681526020019081526020015f20541480612536575060025f3373ffffffffffffffffffffffffffffffffffffffff1673ffffffffffffffffffffffffffffffffffffffff1681526020019081526020015f20544211155b612575576040517f08c379a000000000000000000000000000000000000000000000000000000000815260040161256c90613455565b60405180910390fd5b60035f8473ffffffffffffffffffffffffffffffffffffffff1673ffffffffffffffffffffffffffffffffffffffff1681526020019081526020015f205f9054906101000a900460ff166125fe576040517f08c379a00000000000000000000000000000000000000000000000000000000081526004016125f590613908565b60405180910390fd5b612607346129d1565b604482829050106126bd575f82825f90600492612626939291906139cf565b906126319190613a4a565b905063a9059cbb60e01b817bffffffffffffffffffffffffffffffffffffffffffffffffffffffff1916148061268c575063095ea7b360e01b817bffffffffffffffffffffffffffffffffffffffffffffffffffffffff1916145b156126bb576126ba84848460249080926126a8939291906139cf565b8101906126b59190612f8a565b612aa1565b5b505b5f5f8473ffffffffffffffffffffffffffffffffffffffff163485856040516126e7929190613acc565b5f6040518083038185875af1925050503d805f8114612721576040519150601f19603f3d011682016040523d82523d5f602084013e612726565b606091505b5091509150818160405160200161273d9190613e2d565b6040516020818303038152906040529061278d576040517f08c379a00000000000000000000000000000000000000000000000000000000081526004016127849190613e90565b60405180910390fd5b508473ffffffffffffffffffffffffffffffffffffffff167ffe42058c9fdfbcffba4fa18b805802d0f31f46167296d79c65887acbe13d3d4d8585346040516127d8939291906135db565b60405180910390a25050505050565b600a81815481106127f6575f80fd5b905f5260205f20015f915054906101000a900473ffffffffffffffffffffffffffffffffffffffff1681565b5f5f9054906101000a900473ffffffffffffffffffffffffffffffffffffffff1673ffffffffffffffffffffffffffffffffffffffff163373ffffffffffffffffffffffffffffffffffffffff1614806128a757503073ffffffffffffffffffffffffffffffffffffffff163373ffffffffffffffffffffffffffffffffffffffff16145b6128e6576040517f08c379a00000000000000000000000000000000000000000000000000000000081526004016128dd90613799565b60405180910390fd5b8160015f8573ffffffffffffffffffffffffffffffffffffffff1673ffffffffffffffffffffffffffffffffffffffff1681526020019081526020015f205f6101000a81548160ff0219169083151502179055508060025f8573ffffffffffffffffffffffffffffffffffffffff1673ffffffffffffffffffffffffffffffffffffffff1681526020019081526020015f20819055508273ffffffffffffffffffffffffffffffffffffffff167f287174e88e517fa8684e830e2ba6ac587b3d5fcbb5de9d18ed82ff4b8043ffa483836040516129c4929190613eb0565b60405180910390a2505050565b5f62015180426129e19190613330565b9050600654811115612a33575f600581905550806006819055507f450d69a307fe727c4d16c9aa74048123badcca4d9a3070218b80892e26ee3a1681604051612a2a9190612da7565b60405180910390a15b60045482600554612a449190613926565b1115612a85576040517f08c379a0000000000000000000000000000000000000000000000000000000008152600401612a7c90613f21565b60405180910390fd5b8160055f828254612a969190613926565b925050819055505050565b5f60075f8473ffffffffffffffffffffffffffffffffffffffff1673ffffffffffffffffffffffffffffffffffffffff1681526020019081526020015f205490505f8103612aef5750612cfa565b5f6201518042612aff9190613330565b905060095f8573ffffffffffffffffffffffffffffffffffffffff1673ffffffffffffffffffffffffffffffffffffffff1681526020019081526020015f2054811115612c19575f60085f8673ffffffffffffffffffffffffffffffffffffffff1673ffffffffffffffffffffffffffffffffffffffff1681526020019081526020015f20819055508060095f8673ffffffffffffffffffffffffffffffffffffffff1673ffffffffffffffffffffffffffffffffffffffff1681526020019081526020015f20819055508373ffffffffffffffffffffffffffffffffffffffff167f520fcc7b5acc892f80dabab5a7e5e3ba695778b46e361482ae47a46b93f7c61182604051612c109190612da7565b60405180910390a25b818360085f8773ffffffffffffffffffffffffffffffffffffffff1673ffffffffffffffffffffffffffffffffffffffff1681526020019081526020015f2054612c639190613926565b1115612ca4576040517f08c379a0000000000000000000000000000000000000000000000000000000008152600401612c9b90613f89565b60405180910390fd5b8260085f8673ffffffffffffffffffffffffffffffffffffffff1673ffffffffffffffffffffffffffffffffffffffff1681526020019081526020015f205f828254612cf09190613926565b9250508190555050505b5050565b5080545f8255905f5260205f2090810190612d199190612d1c565b50565b5b80821115612d33575f815f905550600101612d1d565b5090565b5f73ffffffffffffffffffffffffffffffffffffffff82169050919050565b5f612d6082612d37565b9050919050565b612d7081612d56565b82525050565b5f602082019050612d895f830184612d67565b92915050565b5f819050919050565b612da181612d8f565b82525050565b5f602082019050612dba5f830184612d98565b92915050565b5f5ffd5b5f5ffd5b612dd181612d56565b8114612ddb575f5ffd5b50565b5f81359050612dec81612dc8565b92915050565b5f60208284031215612e0757612e06612dc0565b5b5f612e1484828501612dde565b91505092915050565b5f8115159050919050565b612e3181612e1d565b82525050565b5f602082019050612e4a5f830184612e28565b92915050565b612e5981612d8f565b8114612e63575f5ffd5b50565b5f81359050612e7481612e50565b92915050565b5f5ffd5b5f5ffd5b5f5ffd5b5f5f83601f840112612e9b57612e9a612e7a565b5b8235905067ffffffffffffffff811115612eb857612eb7612e7e565b5b602083019150836001820283011115612ed457612ed3612e82565b5b9250929050565b5f5f5f5f60608587031215612ef357612ef2612dc0565b5b5f612f0087828801612e66565b9450506020612f1187828801612dde565b935050604085013567ffffffffffffffff811115612f3257612f31612dc4565b5b612f3e87828801612e86565b925092505092959194509250565b5f5f60408385031215612f6257612f61612dc0565b5b5f612f6f85828601612dde565b9250506020612f8085828601612e66565b9150509250929050565b5f60208284031215612f9f57612f9e612dc0565b5b5f612fac84828501612e66565b91505092915050565b5f5f83601f840112612fca57612fc9612e7a565b5b8235905067ffffffffffffffff811115612fe757612fe6612e7e565b5b60208301915083602082028301111561300357613002612e82565b5b9250929050565b5f5f83601f84011261301f5761301e612e7a565b5b8235905067ffffffffffffffff81111561303c5761303b612e7e565b5b60208301915083602082028301111561305857613057612e82565b5b9250929050565b5f5f83601f84011261307457613073612e7a565b5b8235905067ffffffffffffffff81111561309157613090612e7e565b5b6020830191508360208202830111156130ad576130ac612e82565b5b9250929050565b5f5f5f5f5f5f606087890312156130ce576130cd612dc0565b5b5f87013567ffffffffffffffff8111156130eb576130ea612dc4565b5b6130f789828a01612fb5565b9650965050602087013567ffffffffffffffff81111561311a57613119612dc4565b5b61312689828a0161300a565b9450945050604087013567ffffffffffffffff81111561314957613148612dc4565b5b61315589828a0161305f565b92509250509295509295509295565b61316d81612e1d565b8114613177575f5ffd5b50565b5f8135905061318881613164565b92915050565b5f5f604083850312156131a4576131a3612dc0565b5b5f6131b185828601612dde565b92505060206131c28582860161317a565b9150509250929050565b5f5f5f604084860312156131e3576131e2612dc0565b5b5f84013567ffffffffffffffff811115613200576131ff612dc4565b5b61320c86828701612fb5565b9350935050602061321f86828701612e66565b9150509250925092565b5f5f5f604084860312156132405761323f612dc0565b5b5f61324d86828701612dde565b935050602084013567ffffffffffffffff81111561326e5761326d612dc4565b5b61327a86828701612e86565b92509250509250925092565b5f5f5f6060848603121561329d5761329c612dc0565b5b5f6132aa86828701612dde565b93505060206132bb8682870161317a565b92505060406132cc86828701612e66565b9150509250925092565b7f4e487b71000000000000000000000000000000000000000000000000000000005f52601260045260245ffd5b7f4e487b71000000000000000000000000000000000000000000000000000000005f52601160045260245ffd5b5f61333a82612d8f565b915061334583612d8f565b925082613355576133546132d6565b5b828204905092915050565b5f61336a82612d8f565b915061337583612d8f565b925082820390508181111561338d5761338c613303565b5b92915050565b5f82825260208201905092915050565b7f4e6f7420616e20617574686f72697a6564206167656e740000000000000000005f82015250565b5f6133d7601783613393565b91506133e2826133a3565b602082019050919050565b5f6020820190508181035f830152613404816133cb565b9050919050565b7f53657373696f6e206578706972656400000000000000000000000000000000005f82015250565b5f61343f600f83613393565b915061344a8261340b565b602082019050919050565b5f6020820190508181035f83015261346c81613433565b9050919050565b5f82825260208201905092915050565b828183375f83830152505050565b5f601f19601f8301169050919050565b5f6134ac8385613473565b93506134b9838584613483565b6134c283613491565b840190509392505050565b5f6060820190506134e05f830187612d98565b6134ed6020830186612d67565b81810360408301526135008184866134a1565b905095945050505050565b5f81519050919050565b5f81905092915050565b8281835e5f83830152505050565b5f6135378261350b565b6135418185613515565b935061355181856020860161351f565b80840191505092915050565b5f613568828461352d565b915081905092915050565b7f43726f73732d636861696e20696e74656e74206661696c6564000000000000005f82015250565b5f6135a7601983613393565b91506135b282613573565b602082019050919050565b5f6020820190508181035f8301526135d48161359b565b9050919050565b5f6040820190508181035f8301526135f48185876134a1565b90506136036020830184612d98565b949350505050565b7f4e6f74206120677561726469616e0000000000000000000000000000000000005f82015250565b5f61363f600e83613393565b915061364a8261360b565b602082019050919050565b5f6020820190508181035f83015261366c81613633565b9050919050565b7f4e487b71000000000000000000000000000000000000000000000000000000005f52603260045260245ffd5b7f416c726561647920766f746564000000000000000000000000000000000000005f82015250565b5f6136d4600d83613393565b91506136df826136a0565b602082019050919050565b5f6020820190508181035f830152613701816136c8565b9050919050565b5f61371282612d8f565b91507fffffffffffffffffffffffffffffffffffffffffffffffffffffffffffffffff820361374457613743613303565b5b600182019050919050565b7f4e6f7420617574686f72697a65640000000000000000000000000000000000005f82015250565b5f613783600e83613393565b915061378e8261374f565b602082019050919050565b5f6020820190508181035f8301526137b081613777565b9050919050565b50565b5f6137c55f83613515565b91506137d0826137b7565b5f82019050919050565b5f6137e4826137ba565b9150819050919050565b7f5769746864726177206661696c656400000000000000000000000000000000005f82015250565b5f613822600f83613393565b915061382d826137ee565b602082019050919050565b5f6020820190508181035f83015261384f81613816565b9050919050565b7f4c656e677468206d69736d6174636800000000000000000000000000000000005f82015250565b5f61388a600f83613393565b915061389582613856565b602082019050919050565b5f6020820190508181035f8301526138b78161387e565b9050919050565b7f546172676574206e6f742077686974656c6973746564000000000000000000005f82015250565b5f6138f2601683613393565b91506138fd826138be565b602082019050919050565b5f6020820190508181035f83015261391f816138e6565b9050919050565b5f61393082612d8f565b915061393b83612d8f565b925082820190508082111561395357613952613303565b5b92915050565b5f5ffd5b5f5ffd5b5f5ffd5b5f5f8335600160200384360303811261398157613980613959565b5b80840192508235915067ffffffffffffffff8211156139a3576139a261395d565b5b6020830192506001820236038313156139bf576139be613961565b5b509250929050565b5f5ffd5b5f5ffd5b5f5f858511156139e2576139e16139c7565b5b838611156139f3576139f26139cb565b5b6001850283019150848603905094509492505050565b5f82905092915050565b5f7fffffffff0000000000000000000000000000000000000000000000000000000082169050919050565b5f82821b905092915050565b5f613a558383613a09565b82613a608135613a13565b92506004821015613aa057613a9b7fffffffff0000000000000000000000000000000000000000000000000000000083600403600802613a3e565b831692505b505092915050565b5f613ab38385613515565b9350613ac0838584613483565b82840190509392505050565b5f613ad8828486613aa8565b91508190509392505050565b7f426174636820657865637574696f6e206661696c6564000000000000000000005f82015250565b5f613b18601683613393565b9150613b2382613ae4565b602082019050919050565b5f6020820190508181035f830152613b4581613b0c565b9050919050565b7f416c726561647920696e697469616c697a6564000000000000000000000000005f82015250565b5f613b80601383613393565b9150613b8b82613b4c565b602082019050919050565b5f6020820190508181035f830152613bad81613b74565b9050919050565b7f496e76616c6964207468726573686f6c640000000000000000000000000000005f82015250565b5f613be8601183613393565b9150613bf382613bb4565b602082019050919050565b5f6020820190508181035f830152613c1581613bdc565b9050919050565b7f4475706c696361746520677561726469616e00000000000000000000000000005f82015250565b5f613c50601283613393565b9150613c5b82613c1c565b602082019050919050565b5f6020820190508181035f830152613c7d81613c44565b9050919050565b5f82825260208201905092915050565b5f819050919050565b613ca681612d56565b82525050565b5f613cb78383613c9d565b60208301905092915050565b5f613cd16020840184612dde565b905092915050565b5f602082019050919050565b5f613cf08385613c84565b9350613cfb82613c94565b805f5b85811015613d3357613d108284613cc3565b613d1a8882613cac565b9750613d2583613cd9565b925050600181019050613cfe565b5085925050509392505050565b5f6040820190508181035f830152613d59818587613ce5565b9050613d686020830184612d98565b949350505050565b5f819050919050565b5f819050919050565b5f613d9c613d97613d9284613d70565b613d79565b612d8f565b9050919050565b613dac81613d82565b82525050565b5f604082019050613dc55f830185612e28565b613dd26020830184613da3565b9392505050565b5f81905092915050565b7f457865637574696f6e206661696c65643a2000000000000000000000000000005f82015250565b5f613e17601283613dd9565b9150613e2282613de3565b601282019050919050565b5f613e3782613e0b565b9150613e43828461352d565b915081905092915050565b5f81519050919050565b5f613e6282613e4e565b613e6c8185613393565b9350613e7c81856020860161351f565b613e8581613491565b840191505092915050565b5f6020820190508181035f830152613ea88184613e58565b905092915050565b5f604082019050613ec35f830185612e28565b613ed06020830184612d98565b9392505050565b7f4461696c79206c696d69742065786365656465640000000000000000000000005f82015250565b5f613f0b601483613393565b9150613f1682613ed7565b602082019050919050565b5f6020820190508181035f830152613f3881613eff565b9050919050565b7f546f6b656e206461696c79206c696d69742065786365656465640000000000005f82015250565b5f613f73601a83613393565b9150613f7e82613f3f565b602082019050919050565b5f6020820190508181035f830152613fa081613f67565b905091905056fea2646970667358221220662c5bb29976a159d67af1747df06981115fd94a4558b37df13dde4a882e79be64736f6c634300081c0033","linkReferences":{}},"methodIdentifiers":{"AAVE_POOL()":"08a01675","L2_MESSENGER()":"0d3c4bc7","UNISWAP_V3_ROUTER()":"41c64a2f","ZERO_X_EXCHANGE()":"852803f7","allowedTargets(address)":"b8fe8d5f","authorizeSessionKey(address,bool)":"da5a8e48","authorizeSessionKey(address,bool,uint256)":"f90da50f","configureRecovery(address[],uint256)":"cf229dd2","dailyLimit()":"67eeba0c","dailySpent()":"0bc6b89c","emergencyWithdraw(address,uint256)":"95ccea67","executeBatch(address[],bytes[],uint256[])":"b77ce564","executeIntent(address,bytes)":"eced7320","getRemainingDailyAllowance()":"3cac8e07","guardians(uint256)":"f560c734","hasVotedForRecovery(address)":"1534bf23","initialize(address)":"c4d66de8","isGuardian(address)":"0c68ba21","lastResetDay()":"1259a5c8","newOwnerCandidate()":"d091b550","owner()":"8da5cb5b","recoveryThreshold()":"1c8123d6","recoveryVotes()":"85ec82cd","sendCrossChainIntent(uint256,address,bytes)":"5e2eff73","sessionKeyExpiry(address)":"1d625759","sessionKeys(address)":"b7b8d604","setAllowedTarget(address,bool)":"ca1dd22e","setDailyLimit(uint256)":"b20d30a9","setTokenDailyLimit(address,uint256)":"e83bf542","tokenDailyLimits(address)":"88e3a34f","tokenDailySpent(address)":"3596b46f","tokenLastResetDay(address)":"3b2639c1","voteForRecovery(address)":"8f2a9099"},"id":55}